:100000000C9425020C945D020C945D020C945D022C
:100010000C945D020C945D020C945D020C945D02E4
:100020000C945D020C945D020C94D31A0C948F1AFC
:100030000C94D01B0C945D020C945D020C945D0238
:100040000C945D020C945D020C945D020C945D02B4
:100050000C94F71B0C94AC1B0C945D020C945D0289
:100060000C945D020C945D020C945D020C945D0294
:100070000C945D020C945D020C945D020C945D0284
:100080000C945D020C945D020C945D020C945D0274
:100090000C945D020C945D0205010902A101850228
:1000A0000901A10005091901290815002501950874
:1000B000750181020501093009311581257F9502FD
:1000C0007508810609381581257F95017508810617
:1000D000050C0A38021581257F950175088106C037
:1000E000C005010980A101850319012AB700150186
:1000F00026B700950175108100C0050C0901A1010A
:10010000850419012AA002150126A0029501751087
:100110008100C005010906A1018506050719E0292E
:10012000E7150025019508750181020507190029C9
:10013000EF1500250195F0750181020508190129C7
:1001400005950575019102950175039101C0066041
:10015000FF0961A1010962150026FF0095207508BD
:1001600081020963150026FF00952075089102C0E1
:1001700005010906A101050719E029E71500250178
:10018000950875018102950175088101050719001F
:1001900029FF150026FF009506750881000508193E
:1001A0000129051500250195057501910295017537
:1001B000039101C0000000000000000000000000EA
:1001C000000000000000000000000000000000002F
:1001D00000000000000000007E0F00D4FFFFFFC7FA
:1001E0000000007800000000000000002A2B28001A
:1001F00000000000000000000000000000000029D6
:10020000000000002C1E3420212224342627252E15
:10021000362D3738271E1F2021222324252633334D
:10022000362E37381F0405060708090A0B0C0D0E79
:100230000F101112131415161718191A1B1C1D2F45
:100240003130232D350405060708090A0B0C0D0E65
:100250000F101112131415161718191A1B1C1D2F25
:100260003130354C000000000000000000000001AB
:10027000010203040506080A0C0F1114181C20249F
:10028000292E33393F464C535B626A7179818A92D9
:100290009AA2AAB2B9C1C8CFD5DCE1E7EBF0F4F776
:1002A000FAFCFDFEFFFEFDFCFAF7F4F0EBE7E1DC03
:1002B000D5CFC8C1B9B2AAA29A928A8179716A626D
:1002C0005B534C463F39332E2924201C1814110F40
:1002D0000C0A0806050403020101000000000000EA
:1002E0000000000029003A003B003C003D003E00B9
:1002F0003F004000410042004300440045006800C8
:1003000046004700480035001E001F002000210065
:100310002200230024002500260027002D002E00A7
:100320002A0049004A004B002B0014001A00080064
:10033000150017001C0018000C00120013002F00FD
:10034000300031004C004D004E0039000400160012
:10035000070009000A000B000D000E000F0033001B
:10036000340000002800000000000000E100000050
:100370001D001B00060019000500110010003600CA
:10038000370038000000E500000052000000E000E7
:10039000E300E20000000000000000002C0000006C
:1003A0000000E600E7006500E400500051004F0047
:1003B00009025B00030100A0FA0904000001030127
:1003C00001000921110100012244000705810308F1
:1003D00000010904010002030000000921110100CD
:1003E00001222200070582032000010705030320E4
:1003F00000010904020001030000000921110100AD
:100400000122B6000705840320000112010002004A
:100410000000084E440200000101020001120344E2
:10042000004B002000530061007600650072000060
:100430000012034B00420044004D0061006E006951
:100440000061000000040309040011241FBECFEF67
:10045000D0E1DEBFCDBF04B603FE18C08091B50267
:100460009091B602A091B702B091B8028730904B3C
:10047000A740B04B59F41092B5021092B6021092F8
:10048000B7021092B802E0E0F8E7099522E0ACE686
:10049000B1E001C01D92A53BB207E1F711E0A0E079
:1004A000B1E0EAECF5E402C005900D92AC36B1077C
:1004B000D9F70E946F1C0C948A220C940000482FDC
:1004C0002091B1029091780257E0291302C080E098
:1004D000089530E0529FF001539FF00D1124E7582A
:1004E000FD4F8181681306C08081481303C0858158
:1004F0008111EECF2F5F3F4F2770E7CFE8EDF0E09F
:1005000080818C7F80831092E2001092DA0010923A
:10051000E100A0EEB0E08C9181608C9380818F77B8
:10052000808319BCA7EDB0E08C918E7F8C93808185
:100530008F7E80831092610208952091E4003091B3
:10054000E50095E6A9012091EC00822F817020FF43
:1005500006C08091E80080FF06C080E008952091E9
:10056000E80022FD1AC080916E02882389F0853050
:1005700089F08091EB0085FD0FC02091E40030915F
:10058000E50042175307F9F29150E1F684E008952F
:1005900082E0089583E0089581E0089580917002DB
:1005A00087FF13C08091E80082FF06C08091E800B9
:1005B0008B778093E80004C080916E028111F2CFA6
:1005C000089580916E028823D9F38091E80080FF1E
:1005D000F8CF8091E8008E77ECCF982F9093E900C8
:1005E000242F762F50E0891731F07091EC00209184
:1005F000ED005091F00021FD07C09F5F973071F72B
:100600008093E90081E008953091EB003E7F3093C4
:10061000EB003091ED003D7F3093ED003091EB0029
:1006200031603093EB007093EC002093ED00509319
:10063000F0002091EE0027FDE0CF80E00895B0E0CB
:10064000A0E0E5E2F3E00C94C221C8EDD0E088819F
:100650008F7E8883E7EDF0E080818160808381E098
:100660008093610288818C7F888302EE10E0D8013C
:100670001C921092DA0081EEC82ED12CD6011C9269
:1006800088818F77888388818068888388818F7D3F
:10069000888380818068808319BC10926E021092DA
:1006A0006F0210926D0210926C0290EEE92EF12C06
:1006B000F70180818B7F808388818160888342E01D
:1006C00060E080E00E94ED02D6018C918E7F8C93D9
:1006D000F801808181608083808188608083D70178
:1006E0008C918E7F8C93888180618883CDB7DEB7B3
:1006F000E8E00C94DE21FC01809176029091770273
:1007000086179707A0F06115710529F49091E8000C
:100710009E779093E80090E06115710551F4911176
:1007200008C08091E80082FF33C080E00895BC01DA
:10073000F2CF80916E028823B9F18530B9F18091B2
:10074000E80083FD2FC08091E80082FDEACF809110
:10075000E80080FFE1CF2091F2003091F3006115B5
:10076000710519F02830310558F091E02830310535
:1007700009F090E02091E8002E772093E800CCCF9C
:1007800081918093F100615071092F5F3F4FE7CF56
:1007900080916E02882341F0853041F08091E8001D
:1007A00083FFBFCF81E0089582E0089583E008953C
:1007B0008091630208959C014FB7F89480915D0287
:1007C00090915E02A0915F02B09160024FBF821BC8
:1007D000930B08952FB7F89480915D0290915E027B
:1007E000A0915F02B09160022FBF089590910B011C
:1007F0009923D1F090915A0297FF16C0E82FE69501
:10080000E695E695EE31E0F4F0E0EA58FE4F282F49
:10081000277081E090E001C0880F2A95EAF7809563
:100820009281892382830895E0E7F1E09191891311
:1008300003C0DF0111971C9291E0E637F907B1F789
:10084000089590910B019923C1F090915A0297FF5E
:1008500014C0E82FE695E695E695EE31F8F4F0E061
:10086000EA58FE4F877021E030E001C0220F8A95E0
:10087000EAF78281822B82830895A0E7B1E0EFEF4F
:1008800090E02D91821751F0EF3F19F4211101C032
:10089000E92F9F5F9630A9F7EF3F09F408950E2ED8
:1008A000000CFF0BE259FE4FE6CFA3E0B0E0EBE512
:1008B000F4E00C94C8212091580230915902281775
:1008C0003907A1F09093590280935802E0915602A3
:1008D000F0915702309751F024E029839B838A835B
:1008E0000084F185E02DCE01019609952396E2E082
:1008F0000C94E421A3E0B0E0E0E8F4E00C94C8211B
:10090000209154023091550228173907A1F0909395
:10091000550280935402E0915602F09157023097AD
:1009200051F023E029839B838A830084F185E02DA5
:10093000CE01019609952396E2E00C94E421E09122
:100940005602F0915702309729F00190F081E02D86
:100950000995089580E008950E94EA039C01909112
:10096000500280915102982B21F030934D02209338
:100970004C029091520280915302982B21F03093B7
:100980004B0220934A02E0915602F09157023097B1
:1009900049F082E080934E020680F781E02D8EE4DC
:1009A00092E0099508958091490280FD16C081FD6D
:1009B00016C082FD16C0809148028823A1F08832BB
:1009C00080F428E0829FC001112468E270E00E9458
:1009D0009721862F672B39F0089582E0089584E0EF
:1009E000089588E0089581E008958091490280FD8E
:1009F00014C081FD14C082FD16C080914702882377
:100A000081F08E3180F420E5829FC00111246EE1D7
:100A100070E00E949721862F089584E1089588E26E
:100A2000089588E0089580E50895282F35EB230385
:100A3000C001112497FF04C080589109892F08959F
:100A400080589F4FFBCFB0E0A0E0E9E2F5E00C94C6
:100A5000BE218C0180918600909187006CE070E04F
:100A60000E9483216017710758F0C80169E070E0A7
:100A70000E948321CB01CDB7DEB7ECE00C94DA21E4
:100A80008091860090918700E0908600F09087002A
:100A9000C0908600D0908700C6E0D0E0BE010E94E2
:100AA000832130E020E0060F171F211D311D480172
:100AB000590185E0880C991CAA1CBB1C8A95D1F7AA
:100AC000C701BE010E948321F12CE12CA7019601F0
:100AD000260F371F411D511DC501B4010E94592227
:100AE00069017A01E0918600F0918700CA01B9019D
:100AF0000E9473219B01AC01DF010E944E229B01E9
:100B0000AC01C701B6010E9473212FE0969587952D
:100B1000779567952A95D1F7009186001091870007
:100B200030E020E0061717072807390708F0A2CFA2
:100B300060918600709187009DCF8B30E8F4811121
:100B40001CC090918000977F90938000A0918600B8
:100B5000B0918700282F30E00E947B222AE030E00D
:100B600040E050E00E945922C9010E942305909361
:100B70008D0080938C0008958AE0909180009860A9
:100B8000E3CF282F220F220F220F9091430297705C
:100B9000922B90934302987F21E009F420E09091FA
:100BA000430220FB90F9909343020E949D05089513
:100BB00080E00895F894E82FE295EF70F0E031A11D
:100BC000282F2F7081E090E001C0880F2A95EAF766
:100BD000982F9095932391A392A1892B82A3789427
:100BE000089590915A0292FF10C041E0282F24717D
:100BF000243009F040E031E0282F2871283009F036
:100C000030E0431711F02CE0822793FF10C041E041
:100C1000282F2471243109F040E031E0282F287179
:100C2000283109F030E0431711F02CE08227309191
:100C30005B0230FF10C051E0282F2171213009F0F4
:100C400050E041E0282F2871283009F040E0541787
:100C500011F029E0822731FF10C041E0282F2171D7
:100C6000213109F040E031E0282F2871283109F0C6
:100C700030E0431711F029E0822794FD877E089524
:100C800082389105B9F1B0F48133910509F47DC042
:100C900048F48932910509F46DC08A32910509F44E
:100CA0007BC008958533910509F45FC089339105B0
:100CB00009F10895833E9105D9F138F4803E9105FC
:100CC00029F1823E910579F10895863E9105D9F189
:100CD000873E910509F43EC0843E910541F520917F
:100CE0005B0221FF24C080915A0284FD19C087EE67
:100CF00090E0089520915A02237009F05AC0209183
:100D00005B0223FF14C089E290E0089520915A020B
:100D100020FD38C030915B0230FF09C024FF43C082
:100D200090E080E0089520915A0222FDF7CF0895C7
:100D300020915A0222FD3AC030915B0230FD39C049
:100D400024FFF5CFEDCF20915A0223FFF0CF24FDF1
:100D5000E7CFCDCF20915A0223FD2EC030915B0208
:100D600031FFEECF84EE90E0089520915A0225FFE6
:100D7000DECFC9CF20915A0225FD21C020915B0210
:100D800023FFD5CF89E390E0D2CF20915A0226FFEE
:100D9000CECF8AE290E0089520915A0226FFC7CF75
:100DA00081E390E0089583EE90E0089582EE90E074
:100DB000089580EE90E0089586EE90E0089585E332
:100DC00090E008951F93CF93DF930E944006EC01BB
:100DD000C11580E5D807F0F5C11580E4D80708F003
:100DE0009CC0C03ED10520F5CD3CD10508F082C0A5
:100DF000C83AD10578F4C53AD10508F073C0C130BE
:100E0000D10519F1209709F1C430D105F0F4D0E0F3
:100E1000C0E01BC0C33CD105D0F7C85AD0E0CC0F0E
:100E2000DD1FC15FDE4F0990D881C02DD4640DC095
:100E3000C11580E2D80708F0D1C0C11581E0D807FC
:100E400008F05AC0C83ED10510F7CE01DF91CF910E
:100E50001F910895C03682E5D80718F5C03482E5A1
:100E6000D80708F06BC0C03282E5D80708F05FC031
:100E7000C11582E5D80708F497C02C2F2695269532
:100E800080E2289F900111248C2F8370C1E0D0E074
:100E900002C0CC0FDD1F8A95E2F7C22BD32BDD6891
:100EA000D4CFC03A82E5D80760F4C03882E5D807CD
:100EB00008F459C0CF71D0E0DC2FCC27C46FD06AC2
:100EC000C4CFC03C82E5D80708F462C0C03E82E5CA
:100ED000D80708F09CCFDC2FCC27CC27DF71C06F60
:100EE000D06AB3CFC55AD0E0C45FDE4FC881D0E02E
:100EF000D064ABCFD065A9CF8D2F0E94F105182FFC
:100F0000CE0199270E944006C12FD0E0DC2FCC27CC
:100F1000CC27DF71C82BD92B98CFCE0199270E94FF
:100F20004006CC27DF70C82BD92BD06A8ECFCF716B
:100F3000D0E0DC2FCC27C16FD06A87CF2C2F26952D
:100F40002695277080E2289F900111248C2F8370B2
:100F5000C1E0D0E002C0CC0FDD1F8A95E2F7C22BC2
:100F6000D32BDC6872CF2C2F26952695277080E234
:100F7000289F900111248C2F8370C1E0D0E002C023
:100F8000CC0FDD1F8A95E2F7C22BD32BDA685DCF39
:100F90008C2F8F710E94F105C82FD0E0DC2FCC2759
:100FA000CC27DF71D06251CF8C2F8F710E94F10559
:100FB00055E0D695C7955A95E1F7CF70D0E0DC2F74
:100FC000CC27282F30E084FF05C044E0220F331FD8
:100FD0004A95E1F7C22BD32BD06937CF8D2F8F7174
:100FE0000E94F105182FCE0199270E944006C12FBB
:100FF000D0E0DC2FCC27CC27DF71C82BD92BD2CF68
:1010000080959091F10198239093F101089580913A
:10101000F1019091C801892B9091C701992391F01A
:10102000892B90910B01992371F090915A0297FFAF
:101030000AC09EE128E731E040E0915040F44111C0
:101040001092C701089596E020E731E0F5CFF9014D
:1010500051919F01552389F34F5FEFCF8091B102EA
:1010600090917802981301C008958F5F8770FACF2E
:10107000292F963078F5813168F590E031E1239F92
:10108000800D911D1124682F677023E09695879538
:101090002A95E1F7FC01EE0FFF1FE80FF91FE85654
:1010A000FE4F50E040E080E0219130E0062E02C08B
:1010B000369527950A94E2F721703327042E01C054
:1010C000220F0A94EAF7822B4F5F5F4F433051059E
:1010D00059F7089580E00895292F963098F58131C9
:1010E00088F590E031E1239F800D911D1124282F78
:1010F000277041E001C0440F2A95EAF723E0969556
:1011000087952A95E1F7FC01EE0FFF1FE80FF91F05
:10111000E856FE4F30E020E070E05191DF0111977A
:10112000CB01022E02C0969587950A94E2F7817052
:1011300081958527842385278C932F5F3F4F23300C
:10114000310559F708958093100208959091100287
:1011500021E030E0F90101C0EE0F8A95EAF7D901EC
:1011600002C0AA0FBB1F6A95E2F7EA2B01C0220F4B
:101170004A95EAF7892F8E23E81305C0292B822F81
:101180000E94A308089520952923F9CF21E030E09B
:1011900001C0220F8A95EAF72095809110028223E0
:1011A0000E94A30808959091C60180958923809399
:1011B000C601282F277069F4891759F090915B02B6
:1011C00092FF07C08695869586950E94C608109264
:1011D000C601089521E030E001C0220F8A95EAF7A8
:1011E00080911002822B0E94A308089580930F0221
:1011F000089540915002909152022091530266232B
:1012000009F469C0942B922B20915102922B31F05A
:1012100098E09093470291E0909348028D3C41F40E
:101220000E94F5048195809351020E94AC040895B8
:101230008E3C19F40E94F504F6CF8F3C31F40E94E5
:10124000F504819580935002F0CF803D19F40E94FF
:10125000F504F8CF893D29F40E94D304809352020B
:10126000E4CF8A3D21F40E94D3048195F7CF8B3DD2
:1012700031F40E94D304819580935302D6CF8C3DE4
:1012800019F40E94D304F8CF9FE2980F983070F4BD
:10129000815D990B21E030E001C0220F8A95EAF7C9
:1012A00080914F02822B80934F02BFCF8D3D31F44E
:1012B00080914902816080934902B7CF8E3D21F42D
:1012C000809149028260F7CF8F3D09F0AECF8091C7
:1012D00049028460F0CF8D3C59F48091510287FF20
:1012E0000DC01092510241110BC01092470208C06C
:1012F0008E3C81F48091510218169CF3442381F0B6
:101300008091520290915302892B09F08ECF109256
:1013100048028BCF8F3C49F447FFF0CF1092500228
:10132000809151028111ECCFE0CF803D19F4141669
:10133000ACF3E4CF893D29F4191604F71092520258
:10134000DDCF8A3D19F497FFD9CFF8CF8B3D29F433
:1013500027FFD4CF10925302D1CF8C3D19F412162F
:10136000CCF3CCCF9FE2980F983090F4815D990B2D
:1013700021E030E0B90102C0660F771F8A95E2F7DD
:10138000CB01809590914F02892380934F02B6CF75
:101390008D3D31F4809149028E7F80934902AECF1A
:1013A0008E3D21F4809149028D7FF7CF8F3D09F06A
:1013B000A5CF809149028B7FF0CF81FF06C0429A72
:1013C00082FF05C0419A81E008954298F9CF419883
:1013D000FACF0F931F93CF93DF938B01EA01909184
:1013E0006E02943061F58093E9008FEF9091E800F0
:1013F000815095FD06C095ED9A95F1F70000811199
:10140000F5CF8091E80085FF1AC00E949D028111EE
:1014100011C08091E80085FD06C08091E8008E77BC
:101420008093E800F2CFF80181918F018093F10061
:10143000219779F78091E8008E778093E800DF911B
:10144000CF911F910F91089543E050E0BC0184E0DB
:101450000E94E909089546E050E0BC0184E00E9442
:10146000E909089540E250E0BC0184E00E94E909E6
:101470000895CF93DF93EC0148E050E0BC0181E098
:101480000E94E90988E0FE01A4E6B2E001900D9215
:101490008A95E1F7DF91CF91089581E08093E00094
:1014A00080E28093D8001092C9008FE19EE40197FA
:1014B000F1F700C0000087E090EBDC018093B502FB
:1014C0009093B602A093B702B093B80288E19CE073
:1014D0000FB6F894A895809360000FBE90936000BB
:1014E000FFCFCF93C82F6FEF811164E285E290E0C8
:1014F0000E941A226FEFC11165E086E290E00E941F
:101500001A226FEFC11165E187E290E00E941A2272
:10151000CF910895CF93DF93C9E5D3E060E0CE018A
:101520000E941A222196C11588E0D807B9F7DF91E9
:10153000CF9108951F93CF93DF93122F8430E0F45F
:101540006630D0F44131C0F4C42FD0E0CC0FDD1FA1
:1015500092E2699FC00DD11D11249CEC899FC00DA2
:10156000D11D1124632FCE0189960E941A22612F6A
:10157000CE018A960E941A22DF91CF911F91089581
:10158000EF92FF920F931F93CF93DF93C0E084EE0F
:10159000E82E82E0F82ED0E01CC0402F21E030E0A1
:1015A000C11108C0F801EE0FFF1FEE0DFF1D859160
:1015B00094919C016D2F8C2F0E949A0A0F5F1F4FF0
:1015C0000131110551F7DF5F82E2E80EF11CD630E0
:1015D00019F010E000E0E1CFCF5FC430C1F6CDB725
:1015E000DEB7E6E00C94E02180E00E94710A60E042
:1015F00088E290E00E941A220E94C00A0E948A0A91
:1016000081E00E94710A0895682F86E090E00E94B0
:101610001A2208958091430281FF11C08D7F80932B
:1016200043020E94040B80916F008E7F80936F00B5
:10163000809143028695869586950E949D05089522
:101640008091430281FD10C08260809343020E941A
:10165000040B1092460210924502109244028091AF
:101660006F00816080936F0008958091430280FF36
:1016700008C08E7F809343020E94040B80E00E948A
:101680009D0508958091430280FD13C08160809381
:101690004302813019F489E0809343028091430230
:1016A0000E94040B809143028695869586950E9440
:1016B0009D05089585E290E00E94FC21843289F422
:1016C00086E290E00E94FC21853059F487E290E0A8
:1016D0000E94FC2191E0853109F090E0892F817012
:1016E000089580E0FCCF0F931F93CF93DF93843056
:1016F00030F5663020F5413110F5C42FD0E0CC0F25
:10170000DD1F22E2629FC00DD11D11243CEC839F9E
:10171000C00DD11D1124CE0189960E94FC21082FF5
:1017200010E0102F0027CE018A960E94FC2198011C
:10173000282BC901DF91CF911F910F91089590E05F
:1017400080E0F8CF462F763040F4613130F48430B9
:1017500020F4672F0E94730B089590E080E00895B5
:10176000CF92DF92FF920F931F93CF93DF936C0181
:101770000091100280910F02082BC3E0D0E010E02E
:10178000FC2EC8010C2E02C0959587950A94E2F7AD
:1017900080FD0CC02197A0F7F12C8F2DDF91CF9108
:1017A0001F910F91FF90DF90CF900895B6018C2F7D
:1017B0000E94A20B0E94E206019761F3EECFCF9345
:1017C000DF93EC010E94B00BBE010E94A20B0E94AD
:1017D000E206DF91CF910895FC0124812223C1F01C
:1017E000808191810E94DF0B92959F70963091F0DD
:1017F00058F4925F9F70923058F4803F19F030F4A3
:10180000883E30F481E008959A5FF4CF843FD1F3AD
:1018100080E00895883EB0F3813FD1F7F3CFA6E092
:10182000B0E0E5E1FCE00C94C72149835A8349818B
:101830005A819923A1F0222391F0CA010E94B00B92
:10184000182F682F89819A810E946C0869817A819A
:10185000812F0E94A20B2696E3E00C94E321CA019B
:101860000E943808182FF2CF86E090E00E94FC21F9
:101870008093430282FD05C085E5809343020E9468
:10188000040B80914302883520F087708065809337
:10189000430290914302892F817090FF04C0892FE9
:1018A0008695869586950E949D05089590915B0288
:1018B00092FB222720F9281779F080FB92F9909368
:1018C0005B0260915A0270915B0284E090E00E949A
:1018D000382282E00E94D308089580910B0188236A
:1018E00059F180915A0287FF27C00E940708809310
:1018F000770140E250E069EC71E086E791E00E94F8
:10190000EF21892BC1F080E2E6E7F1E0A9ECB1E03C
:1019100001900D928A95E1F7E0915602F0915702FD
:10192000309749F086E0809376010480F581E02DC0
:1019300086E791E0099508950E94070880936E015B
:1019400048E050E069EE71E08EE691E00E94EF2100
:10195000892B89F388E0EEE6F1E0A9EEB1E0019091
:101960000D928A95E1F7E0915602F0915702309777
:1019700011F30280F381E02D8EE691E0DBCF10922F
:10198000F10180910B01882339F180915A0287FF80
:1019900023C0E8E7F1E08EE1DF011D928A95E9F7C7
:1019A00090E080E00E947A0490E080E00E9455047C
:1019B0001092C8010E946D0C86E0EEE4F2E0DF01B7
:1019C0001D928A95E9F710924702109248021092F0
:1019D00049020E94AC040895E0E7F1E086E0DCCF24
:1019E000AAE2B0E0E6EFFCE00C94C72180E792E0C9
:1019F0002091F100DC012D93CD01B2E088379B07E7
:101A0000B9F780917102833009F472C0B8F4813063
:101A100009F449C0823009F4B3C08091E80083FF23
:101A20008BC280917002909171029A3008F084C24A
:101A3000E92FF0E0E457FD4D0C94AB218A3009F416
:101A40008EC08B3009F471C0893039F780917002F3
:101A5000813219F78091740290917502009711F00C
:101A60000297D9F68091E800877F8093E800809103
:101A7000E80082FF38C08091F2009091F300029755
:101A800031F48091F100813011F0863021F48091A1
:101A9000F100809363028091E8008B778093E800E7
:101AA0000E94CE02BACF80917002813A09F0B5CF80
:101AB0008091E800877F8093E80080917402909184
:101AC0007502892B61F468E084E692E070E00E9480
:101AD0007B038091E8008B778093E8009ECF60E0E5
:101AE00090E080E0F3CF80916E028111C0CF95CF5E
:101AF00080917002813A09F090CF809174029091A8
:101B00007502892B09F089CF8091E800877F809347
:101B1000E8008091E80080FFFCCF80910B0180936A
:101B2000F1008091E8008E77B9CF80917002813208
:101B300009F073CF8091740290917502892B09F09E
:101B40006CCF8091E800877F8093E8000E94CE02EE
:101B50008091720280930B010E94BF0C5ECF809136
:101B60007002813209F059CF8091E800877F80931D
:101B7000E8000E94CE0280917302809362024DCFF2
:101B800080917002813A09F048CF8091E800877F08
:101B90008093E8008091E80080FFFCCF8091620292
:101BA000BECF803899F0823809F0C6C180917402A6
:101BB0008F70873008F0C0C18093E9008091EB00FE
:101BC00085FB882780F91092E90006C080916C029D
:101BD00090916D02911182609091E800977F9093AF
:101BE000E8008093F1001092F1008091E8008E7778
:101BF0009FC1882309F48DC1823009F09DC1809175
:101C00007202811190C1809174028F702FEF280FA2
:101C1000263008F091C18093E9002091EB0020FF6D
:101C200082C1933031F48091EB0080628093EB00AD
:101C30007AC19091EB0090619093EB0021E030E04D
:101C400001C0220F8A95EAF72093EA001092EA0079
:101C50008091EB008860EACF81116EC11091720211
:101C60001F778091E3008078812B8093E30080913F
:101C7000E800877F8093E8000E94CE028091E80010
:101C800080FFFCCF8091E30080688093E30082E0D6
:101C9000111183E080936E024FC18058823008F0AA
:101CA0004BC120917202309173022C3DE3E03E075C
:101CB000A1F583E08A838AE289834FB7F894DE0135
:101CC000139620E03EE051E2E32FF0E050935700FE
:101CD000E49120FF03C0E295EF703F5FEF708E2F1D
:101CE00090E0EA30C0F0C7968D939D932F5F24312A
:101CF00059F74FBF8091E800877F8093E8006AE240
:101D000070E0CE0101960E947B038091E8008B7702
:101D10008093E80011C1C096E7CF80917402909142
:101D20007502432F55274330510509F44AC078F511
:101D30004130510509F47AC08BE590E0E0EBF3E027
:101D40004230510509F0F8C02091E800277F209328
:101D5000E80020917602309177028217930708F409
:101D60009C0140E02115310509F065C0411163C0B7
:101D70008091E80082FDC9CF80916E02882329F20C
:101D8000853019F28091E80083FFF2CFBECF413257
:101D9000510509F43CC04232510509F0CDC08330F1
:101DA000910508F0C9C0FC01EE0FFF1FE15AFE4F7C
:101DB0000190F081E02D845A9E4FDC018C9190E0DF
:101DC0001AC0332721303105D1F02115310561F0DA
:101DD0002230310509F0B0C0EDE1F4E0E4918E2F3E
:101DE00090E0EDE1F4E007C0E5E4F4E0E4918E2F4B
:101DF00090E0E5E4F4E0009709F49EC0A5CFE1E3AC
:101E0000F4E0E4918E2F90E0E1E3F4E0F4CF83304E
:101E1000910508F091C0880F991FFC01EB59FE4F06
:101E20000190F081E02D89E090E08ECF82E190E09A
:101E3000EBE0F4E089CF80916E02882309F465CF4E
:101E4000853009F462CF8091E80083FD5ECF8091F8
:101E5000E80082FD8DCF8091E80080FF83CF8091E4
:101E6000F2009091F3002115310519F088309105A9
:101E700050F041E0089709F040E08091E8008E774B
:101E80008093E8006FCF44914093F1003196215048
:101E900031090196E8CF803809F04EC08091E80002
:101EA000877F8093E80080916F028093F1009DCE40
:101EB000811142C0109172021230F0F58091E80059
:101EC000877F8093E80010936F020E94CE02112357
:101ED00011F084E005C08091E30087FDFACF81E036
:101EE00080936E0242E061EC81E00E94ED0242E2EA
:101EF00061EC84E00E94ED0242E261EC82E00E942B
:101F0000ED0242E260EC83E00E94ED0280916E02FD
:101F100013C080917202813079F481E0933009F02E
:101F200080E080936D021092E9008091E800877F45
:101F30008093E8000E94CE028091E80083FF0AC0EF
:101F40008091E800877F8093E8008091EB008062B9
:101F50008093EB00AA96E3E00C94E3210E94BF0C6F
:101F60002FEF84E39CE0215080409040E1F700C0D7
:101F7000000088E19CE00FB6F894A895809360007B
:101F80000FBE90936000FFCF882321F00E940008CD
:101F90000E946D0C0895882339F09091F101982BDF
:101FA0009093F1010E946D0C0895882309F456C0A6
:101FB000823879F40E949F0481FF50C089E30E9417
:101FC00021040E946D0C89E30E94F6030E946D0CAF
:101FD0000895833859F40E949F0480FF3FC083E531
:101FE0000E9421040E946D0C83E5EECF843859F4E1
:101FF0000E949F0482FF32C087E40E9421040E9455
:102000006D0C87E4E1CF9CEF980F913AE8F290E2F3
:10201000980F983050F4877091E001C0990F8A951D
:10202000EAF7892F0E940008D1CF9BE5980F9330E3
:1020300028F490E080E00E947A04089598E5980FD3
:102040009B3128F490E080E00E945504089593E3CA
:10205000980F933118F460E00E94F9080895CF9327
:10206000C82F8823C9F08238C9F40E949F0481FDDB
:1020700013C089E30E9421040E946D0C2FEF87EEAC
:1020800093E0215080409040E1F700C0000089E3D8
:102090000E94F6030E946D0CCF9108958338A1F43D
:1020A0000E949F0480FDF8CF83E50E9421040E94D6
:1020B0006D0C2FEF81EE94E0215080409040E1F7CD
:1020C00000C0000083E5E4CF8438A1F40E949F049F
:1020D00082FDE2CF87E40E9421040E946D0C2FEF65
:1020E00081EE94E0215080409040E1F700C0000074
:1020F00087E4CECF8CEF8C0F813A88F580910B016D
:10210000882301F180915A0287FF1CC0EC2FE695CD
:10211000E695E695F0E0EA58FE4F828190E04C2F7C
:10212000477021E030E002C0220F331F4A95E2F7EA
:1021300082239323892B79F08C2F0E94F6030E942F
:102140006D0C09C0E0E7F1E08191C817A9F321E027
:10215000E637F207C9F78C2F0E9421049BCF80E25B
:102160008C0F883068F4C77021E030E001C0220F86
:10217000CA95EAF78091F101822B8093F1018ACF11
:10218000EBE5EC0FE33040F4F0E0E45FFE4F8081DC
:1021900090E00E947A0480CFE8E5EC0FEB3150F438
:1021A000F0E0EE0FFF1FE15FFE4F808191810E9402
:1021B000550472CF83E38C0F833108F06DCF61E05B
:1021C0008C2F0E94F90868CF4F925F926F927F9296
:1021D000AF92BF92CF92DF92EF92FF920F931F9335
:1021E000CF93DF93CDB7DEB768970FB6F894DEBF15
:1021F0000FBECDBF8E010F5F1F4F88E1F801119216
:102200008A95E9F795E4E92E91E0F92E6801AA2470
:10221000A394B12CF70181917F018F3F09F452C043
:10222000F894E82FE295EF70F0E021A18F70A501FE
:1022300002C0440F551F8A95E2F7CA01922F982BCE
:1022400091A392A18095892382A3789400C0EBE4A6
:10225000F1E041E050E060E070E0412C512C3201AF
:1022600081918F3F89F0A82FA295AF70B0E0909632
:102270002C9130E08F7002C0359527958A95E2F752
:10228000DB01CA0120FF03C080E090E0DC01482AA6
:10229000592A6A2A7B2A440F551F661F771F81E03F
:1022A000EC35F807E9F6F701319780818F3F11F09F
:1022B0000E94DA05E0EAEA95F1F7F60140825182E0
:1022C00062827382F4E0CF0ED11C4BE4E41641E04D
:1022D000F40609F09FCF48E150E0B80187EF91E0A4
:1022E0000E94EF21892B51F188E1F801A7EFB1E0BD
:1022F00001900D928A95E1F781E08093F6010E94AA
:10230000EA039093F5018093F40110E0812F689621
:102310000FB6F894DEBF0FBECDBFDF91CF911F91F6
:102320000F91FF90EF90DF90CF90BF90AF907F9094
:102330006F905F904F90089510E01FC01091F601CC
:10234000112319F38091F4019091F5010E94DB03B0
:102350000597D8F248E150E067EF71E08BE292E038
:102360000E94EF21892B41F388E1E7EFF1E0ABE236
:10237000B2E001900D928A95E1F71092F601C6CF76
:102380001F93CF93DF93182FEB010E942F102097FC
:1023900039F4812F0E94D50FDF91CF911F910895BD
:1023A0008FE99FE00197F1F700C000002197EFCF80
:1023B0000F931F93CF93DF93C62FD42F022FFC01CF
:1023C00085818823A9F06093B4020E94EA03909368
:1023D000B3028093B202C77081E001C0880FCA9532
:1023E000EAF70E94CB0FDF91CF911F910F910895D3
:1023F0008091B402681334C08091B2029091B3020C
:102400000E94DB03883C910558F510E21D0FCD17A3
:10241000B9F080E28C0F883040F4C77081E001C0D1
:10242000880FCA95EAF70E94C40F183048F481E07B
:102430009D2F977001C0880F9A95EAF70E94CB0FE5
:1024400070E060E0802F0E94C011183060F6D770F5
:1024500081E001C0880FDA95EAF70E94C40FC3CF6C
:10246000C77081E001C0880FCA95EAF7F6CFA8E0EF
:10247000B0E0EDE3F2E10C94BA218C01DC0114969A
:102480008C911497882309F4BEC021E04C911196D9
:102490005C91119712966C91129713967C911397F9
:1024A00015969C910E940F0C7C01F8018581882370
:1024B00009F448C1970137572038310508F042C167
:1024C000FFE0FE1508F48FC08FEF97E00E94FC211B
:1024D000811189C069E5A62E63E0B62EE1104DC0DA
:1024E000FE01339686E0DF011D928A95E9F75AE0F6
:1024F000452E7501BFEFEB1AFB0AC5010E94FC21B6
:1025000089831A82882309F46EC0813009F07FC064
:102510006501E2E0CE0ED11CC7010E94FC218A8336
:10252000882309F460C09FEF980F9330A0F5F3E083
:10253000AF0EB11CC6010E94FC218B83882309F4D5
:1025400052C01C82DE0111967D01F70120812223F9
:1025500081F2213009F09DC091818281913009F092
:1025600058C0F2E0EF0EF11C70E060E0893311F426
:1025700060E570E00E94C01153C0A11428E0B206CB
:1025800091F1C5010E94FC21811101C0EA943FEF45
:10259000A31AB30AA3CF56018430A1F642E0E42E79
:1025A000F12C56012FEFA21AB20AC6010E94FC219B
:1025B000E1E0F0E0EC0FFD1FEE0DFF1D80838823AE
:1025C00091F08C3741F4E2E0F0E0EC0FFD1FEE0DEE
:1025D000FF1D1082B7CF3FEFE31AF30A650187E0D2
:1025E000E816F104F1F68091C601877061F0D80118
:1025F00015968C91882339F080915B0282FF03C08D
:1026000082E00E94D3082896E0E10C94D62157017D
:1026100099CF923049F422E0E20EF11C0E942F1073
:102620009FEFE91AF90A91CF933031F432E0E30ECB
:10263000F11C0E94D50FF4CF943021F08FEFE81AEF
:10264000F80AEECF92E0E90EF11C30E020E0B7018D
:102650006F5F7F4FD70111964C918053990B8A3051
:10266000910560F021153105D9F2EFE9FFE03197CE
:10267000F1F700C0000021503109F4CF429EF00173
:10268000439EF00D11249C012E0F3F1F842F7B01D0
:10269000DECFE22FF0E0EC51FE4F5490822F869572
:1026A0008695869590E0FC01EC52FE4F6490277071
:1026B000712C022E02C0759467940A94E2F7F1E03F
:1026C0006F227724FC01EC53FE4F8490912C022E54
:1026D00002C0959487940A94E2F731E0832299240A
:1026E000FC01EC54FE4FC490D12C02C0D594C79489
:1026F0002A95E2F781E0C822DD246114710419F003
:1027000081EE0E942F108114910419F086EE0E9430
:102710002F1070E060E0852D0E94C011811491049B
:1027200019F086EE0E94D50F6114710419F081EE44
:102730000E94D50FC114D10409F472CF70E060E09B
:102740008CE218CF9091430291FD17C0882391F03D
:102750000E94350BD80115968C91F701882309F456
:102760005AC4F857E730F10508F04AC4EA56FD4D5F
:102770000C94AB210E94420BEDCF882359F30E94A9
:102780000A0B0E94200BE6CF8AE00E94C1058091CF
:1027900043020E94040B27CF80E0F7CF80914302D1
:1027A000982F987F79F0885080934302887F91E03A
:1027B00009F490E08091430290FB80F980934302FA
:1027C0000E94040B809143028695869586950E940F
:1027D0009D0509CF80914302982F969596959695E1
:1027E0009A3040F49F5F990F990F990F8770892B4A
:1027F00080934302809143028160E0CF8091430245
:1028000080FF03C00E94350BEECE0E94420BEBCE40
:1028100090914302892F8695869586958F5F8F715B
:1028200097708B3048F4880F880F880F892B80931E
:10283000430280914302BACF90934302FACF809132
:10284000430281FF03C00E940A0BCDCE0E94200BE1
:10285000CACE26E241EE61EEC8010E94D811C3CE75
:1028600027E245EE65EEF8CF26E241EE60EEF4CFCA
:1028700027E245EE64EEF0CF26E241EE62EEECCFC9
:1028800027E245EE66EEE8CF28E241E0EBCF10927A
:10289000B402C7019057839708F01CC384E090E00E
:1028A0000E94042290935B0280935A02F701E15048
:1028B000F047E232F10520F4E356FD4D0C94AB21D4
:1028C00080915A02816080935A0295C080915B0288
:1028D000886080935B028FC080915A028260F3CF40
:1028E00080915A028460EFCF80915A028860EBCFCA
:1028F00080915B028160EDCF80915B028260E9CFC5
:1029000080915A028061DFCF80915A028062DBCFD2
:1029100080915A028064D7CF0E94BF0C80915A02E6
:102920008068D1CF80915A028C60CDCF80915B02BC
:102930008360CFCF80915A028E7FC5CF80915B029A
:10294000877FC7CF80915A028D7FBDCF80915A0279
:102950008B7FB9CF80915A02877FB5CF80915B0280
:102960008E7FB7CF80915B028D7FB3CF80915A026B
:102970008F7EA9CF80915A028F7DA5CF80915A0278
:102980008F7BA1CF0E94BF0C80915A028F779BCF83
:1029900080915A02837F97CF80915B028C7F99CF81
:1029A00080915A0282FB992790F921E0922790FBAF
:1029B00082F990FB83F987CF80915B02982F9095E5
:1029C00091708E7F892B90FB81F983CF90915A0271
:1029D000892F8F7B96FF806476CF0E94BF0C9091E9
:1029E0005A02892F97FB87F980586DCF61E08EE0FE
:1029F00090E00E941A2260915A0270915B0284E07A
:102A000090E00E9438220E94BF0CEDCD60E0EFCF35
:102A100090915A02892F8F7E94FF806154CF9091BC
:102A20005A02892F8E7F90FF81604DCF90915B027B
:102A3000892F877F93FF88604CCF85E35BC285E356
:102A4000F9C281E00E94EA0843E062E081E00E946E
:102A5000A608C9CD81E00E94C608F6CF82E0F2CF79
:102A60003BE5E3163CE7F30661F18CE5E8168CE7FD
:102A7000F806E9F09AE5E9169CE7F90609F05EC266
:102A800081E01CC00E94BF0CAFEFB4E3ECE0A150AA
:102A9000B040E040E1F700C000000E944D0A6FEF37
:102AA0007FEF90E080E00E9438220E94AE0F80917C
:102AB0005B0282FB882780F991E089270E94560CEF
:102AC0003DC280E0FBCFC7010E943808D82E45C226
:102AD000FF2DFF70BF2E8F2D807F19F0B29490EFE5
:102AE000B922AA20B9F0BB2069F080E28E0D8830AF
:102AF00010F0811009C08091F101B82AB092F10163
:102B00000E946D0C8E2D46C08091C801B82AB092EB
:102B1000C801F6CF8E2D0E94D50FBB20E9F180E2CF
:102B20008E0D883010F0811004C08B2D0E9400089B
:102B300006C0B0948091C801B822B092C8010E942A
:102B40006D0C2AC02F2D2F70B22E8F2D807F8032DA
:102B500019F0B29480EFB822882059F031E0831642
:102B600009F485C0AA2009F491C0992009F452C043
:102B7000C9CF80915B0282FD49C0AA2009F440C000
:102B8000BB2039F08091F1018B298093F1010E94E3
:102B90006D0C80E00E942F10AC2DA850BB0B149739
:102BA00020F40E949F040E94DD09DD20A9F080919D
:102BB000C60180FD11C0F80115828695869586951F
:102BC0000E94EA08C8010E9437128091C6018695CA
:102BD000869586950E94C60820E0D8014C911196F2
:102BE0005C91119712966C91129713967C911397A2
:102BF00014968C91149715969C910E940F0C03CDFE
:102C000080E00E94D50FBB2039F28FCFAA20A1F01F
:102C1000911004C08B2D0E94CB0FBECF81E0981283
:102C2000BBCF8091C7019B2D9823B91609F4B4CF6F
:102C30008B298093C701B0CF9110AECF8B2D0E940E
:102C4000C40F9091C7018B2D892329F08B2D80957E
:102C500089238093C701909197018B2D892309F4D3
:102C60009BCF8B2D809589238093970195CFAA20A8
:102C700029F095E0991508F48FCFCCCFA4E0A915E1
:102C800008F48ACF8B2D0E94C40F86CF9920D1F3F0
:102C9000B9E38B1218C1EFEFF7EE23E0E150F040FB
:102CA0002040E1F700C000000EC18F2D869586956B
:102CB000837061F0813009F06FCFC7019370A1106C
:102CC00002C080E090E00E94550466CFC701937077
:102CD000A11002C080E090E00E947A045DCF6A2DCE
:102CE0008E2D0E94F90858CF8F2D837091F5A11079
:102CF00053CF4E2D429546954770440F440F8E2D6D
:102D00008F70042E01C0880F0A94EAF72E2D2071CF
:102D1000E4FE07C02FE030E001C0220F4A95EAF739
:102D200020953F2D369536953370323069F050F44A
:102D300040910F02313029F0822B84230E94F60843
:102D40002BCF842B822BFACF282B80910F02822746
:102D5000F5CF8695AA2011F08F2D8170882309F474
:102D60001BCF4E2D429546954770440F440F8E2D34
:102D70008F70042E01C0880F0A94EAF72E2D20715F
:102D8000E4FE07C02FE030E001C0220F4A95EAF7C9
:102D900020953F2D369536953370323069F050F4DA
:102DA00040911002313029F0822B84230E94A30825
:102DB000F3CE842B822BFACF282B8091100282270E
:102DC000F5CF3F2D3F70F32EAA2029F0832F0E94CC
:102DD000EA088E2D20CF8E2D0E94C40F8F2D0E94C9
:102DE000C608DACE8E2D92EF8916B1F1981570F0E3
:102DF000A0EF8A16D1F0B1EF8B1691F0AA2009F45A
:102E00005DC091107FCE8F2D8F712AC0E3EF8E169B
:102E100051F1F4EF8F12F2CF80915B0282FD2FC04F
:102E20008F2D8F71AA20D9F21BC0AA2081F024E037
:102E3000291508F4B1CE2F2D2F7181E090E001C04B
:102E4000880F2A95EAF7909110028927AFCF35E0D5
:102E5000391508F4A1CEEFCF8F2D8F71A110BFCF00
:102E60000E94EA0899CE80E0AA2009F49FCF9F2D06
:102E70009F7181E001C0880F9A95EAF797CFAA2049
:102E800091F08F2D8F71F82E0E94EA0880915B02DD
:102E900082FF07C0A8E0FA9EC001112483608093DE
:102EA000C6018F2DDDCF81E00E94D308B1E0B915B6
:102EB00008F072CE82E00E94D3086ECE992039F0DD
:102EC000893309F4E8CE8E2D0E94D50F65CE8F2D63
:102ED0008F7185CFB6E1EB16BCE7FB0681F48091DC
:102EE000F1018A7A91E009F490E0909396018111C2
:102EF000A4CD89E20E9421040E946D0C74CBF7E7F7
:102F0000EF16FCE7FF0609F49CCD28E7E2162CE754
:102F1000F20609F4A3CDB3E0EB16BCE7FB0609F417
:102F2000BECD08F09DCDE114FCE7FF0609F4AACD63
:102F300021E0E2162CE7F20609F4B7CDF80185810D
:102F4000E080F180882309F4BECDC7010E94B00B58
:102F5000D82E682FC7010E946C08B7018D2D0E94E2
:102F6000A20B0E94E2067C01882ED8011596AC9037
:102F7000159716969C9092943FE093228091C601FB
:102F8000877009F1DA2CAA20F9F08F2D807F803428
:102F900069F080E28E0D8830B0F08F2D807E803217
:102FA00029F4B1E0BE1578F4992069F080915B02B4
:102FB00082FF09C082E00E94D3088091C601877019
:102FC000DD24D3948111D12CCF2CC2942FE0C222C6
:102FD000EBE0EC1508F4E0CDEC2DF0E0E154FD4D14
:102FE0000C94AB2137E7E3163CE7F30609F432CD46
:102FF00088E7E8168CE7F80609F0A0CF82E02BCD31
:10300000F701E851FC47E730F10508F040CCE55303
:10301000FD4D0C94AB21E851FC47E730F105B8F3C6
:10302000E6E1EE16ECE7FE06E9F6809196018111E5
:1030300006CD89E20E94F6035FCFCF93DF938091A4
:10304000C501807F09F04DC08091C401882309F437
:1030500048C0E091B10250917802C091C001D09176
:10306000BF016091C1017091C20147E05E17C9F1D3
:103070008E2F90E0E49FF0011124E758FD4F24814A
:10308000222391F1489FF001499FF00D1124DF01A7
:10309000A758BD4F11962C9111972C1325C02C9138
:1030A0002D1322C015962C91159721111DC0129633
:1030B0002D913C91261B370B283C3105A8F48091BB
:1030C000C5018F7080618093C501E158FD4F8081FB
:1030D0008F70806180838FEB91E00E9437120E9495
:1030E0002E08DF91CF910895FC013196E770BECF95
:1030F000A4E1B0E0EEE7F8E10C94BE218C0186E09B
:10310000F801DE011F9601900D928A95E1F7F80112
:103110008481E5809FEBA92E91E0B92E9091C301A7
:10312000911128C0882319F1EE20F1F0C8010E9406
:10313000EC0BF82E8823C1F087E0F801D50101904F
:103140000D928A95E1F78091C301813031F480912D
:10315000BF019091C0010E94DF0B0E941D188F2DAE
:103160006496ECE00C94DA21C8010E943712FF2427
:10317000F394F5CFD080C18082809380F090C40119
:103180002091C1013091C201A401421B530BFF20C9
:1031900009F4D9C0483C510508F092C08823F9F2DF
:1031A0009091C0018091C501282F207F09F056C061
:1031B000C91214C09091BF01D91210C0E11048C0CB
:1031C0008F7080618093C5018FEB91E00E94371270
:1031D0008091C501F8018683F12CC1CFE11038C080
:1031E0006C2D8D2D0E945F026C2D8D2D0E945F0233
:1031F000E82E8111F1CFDF86C88A8F8598890E94D9
:10320000DF0B292F22952F70243058F49F70223025
:1032100088F0992399F0F8019681907F79F4FE2C3B
:103220009ECF2A5F2F70223068F0C8010E943712AB
:10323000EF2CF5CF992311F0882389F3805E883035
:1032400070F3F3CF803F58F3815F833070F7E7CF9F
:103250008091C50181608093C501BECFC91207C0AE
:103260009091BF01D91203C0EE2009F48DC0C801AE
:103270000E94EC0B882309F477CFEE2009F474CF79
:103280008091C501803288F02091BF013091C0014A
:10329000398728879B868A869091C3019C871D86E3
:1032A0008E87CE0108960E94371287E0F801AFEBB7
:1032B000B1E001900D928A95E1F70E941D1857CF59
:1032C0009091C501292F207F51F48FEB91E00E944E
:1032D000371287E0F50111928A95E9F77DCF8823AF
:1032E00009F43DCF8091C0018C1110C08091BF01C5
:1032F000D8120CC0E1100AC09683C8010E94371290
:1033000087E0F50111928A95E9F729CFC8010E945B
:10331000EC0B882309F428CFEE2009F425CF809107
:10332000C501803210F22091BF013091C0013A8373
:1033300029839C828B829091C3019D831E828F83FF
:10334000CE010196B0CF483C5105D0F6882309F450
:103350000ECFFE2CEE2009F407CF8091C0018C1116
:1033600020C08091BF01D8121CC08091C50180FD92
:103370000FC0982F907F61F08683903F31F0982F97
:10338000907F905F8F70892B8683C8010E943712CF
:1033900087E0F801AFEBB1E001900D928A95E1F77B
:1033A000DECEC8010E94EC0B81117FCF8091C50158
:1033B00081608093C501C8010E943712D0CEABE175
:1033C000B0E0E5EEF9E10C94C6214E8B5F8B688F7F
:1033D000798F8A8F9B8F192F91111092C8011D8AA6
:1033E00086E0FE017696DE011F9601900D928A9589
:1033F000E1F70A8D002341F021E04F855889698962
:103400007A89C8010E940F0C0B8B1C8B87E0FE0190
:103410003F96DE01189601900D928A95E1F7CE0154
:1034200008960E94781881110CC087E0FE0138963A
:10343000DE01119601900D928A95E1F78C8581113C
:103440000BC017E08091B10290917802891331C0CE
:103450006B96E4E00C94E2212091780230E0C901FF
:103460000196877099274091B1024817190699F083
:1034700097E0929FD001939FB00D1124A758BD4FA4
:10348000FE01319601900D929A95E1F780937802B2
:103490000E942E08D6CF0E94BF0C10927802109284
:1034A000B10287E0EFEBF1E0DF011D928A95E9F7C9
:1034B000C8CF819FC001112487589D4F0E94781862
:1034C000882331F28091B10290E0019687709927AC
:1034D0008093B102B7CFA6E0B0E0E1E7FAE10C9447
:1034E000C6210E94EA038C018091F2019091F301C0
:1034F0008017910781F019821A820E94EA03682FCF
:1035000049815A81792F80E090E00E94DF19109361
:10351000F3010093F2012696E4E00C94E2211F925D
:103520000F920FB60F9211242F933F934F935F93F7
:103530006F937F938F939F93AF93BF93CF93DF93BB
:10354000EF93FF93D091E900DF708091EC00C82FDA
:10355000C17080FDC0E81092E9008091F000877F83
:103560008093F00078940E94F00C1092E900809112
:10357000F00088608093F000CD2BCF70C093E900FD
:10358000FF91EF91DF91CF91BF91AF919F918F917B
:103590007F916F915F914F913F912F910F900FBE4F
:1035A0000F901F9018951F920F920FB60F92112433
:1035B0002F933F934F935F936F937F938F939F933B
:1035C000AF93BF93EF93FF938091E10082FF09C017
:1035D0008091E20082FF05C08091E1008B7F8093A3
:1035E000E1008091DA0080FF24C08091D80080FF44
:1035F00020C08091DA008E7F8093DA008091D9001C
:1036000080FF9DC088E189BD8AE189BD09B400FEC3
:10361000FDCF81E080936E0280916102811109C02B
:103620000E947E020E941F038091E20084608093CA
:10363000E2008091E10080FF17C08091E20080FFEE
:1036400013C08091E2008E7F8093E2008091E200BF
:1036500080618093E2008091D80080628093D800DE
:1036600019BC85E080936E028091E10084FF2BC03D
:103670008091E20084FF27C088E189BD8AE189BD8D
:1036800089B5982F917080FFFBCF8091D8008F7DF6
:103690008093D8008091E1008F7E8093E10080913B
:1036A000E2008F7E8093E2008091E200816080934F
:1036B000E20080916F02882309F447C084E0809380
:1036C0006E0280916E028091E10083FF27C080919D
:1036D000E20083FF23C08091E100877F8093E100B7
:1036E00082E080936E0210926F028091E1008E7FE3
:1036F0008093E1008091E2008E7F8093E2008091D0
:10370000E20080618093E20042E060E080E00E949D
:10371000ED028091F00088608093F000FF91EF91BE
:10372000BF91AF919F918F917F916F915F914F91D9
:103730003F912F910F900FBE0F901F90189519BCBD
:1037400010926E021092610274CF8091E30087FDA7
:1037500093E090936E02B5CF78941F921FB61F929C
:1037600011248F939F93AF93BF9380915D029091AB
:103770005E02A0915F02B09160020196A11DB11D91
:1037800080935D0290935E02A0935F02B09360020B
:10379000BF91AF919F918F911F901FBE1F90189561
:1037A0001F921FB61F9211248F939F93AF93BF93C5
:1037B00080915C02811113C080915D0290915E0244
:1037C000A0915F02B09160024196A11DB11D80934E
:1037D0005D0290935E02A0935F02B0936002BF917E
:1037E000AF919F918F911F901FBE1F9018951F92B0
:1037F0000F920FB60F9211242F933F934F935F9325
:103800006F937F938F939F93AF93BF93EF93FF93A8
:1038100080910A018230A1F08F5F80930A01FF91AD
:10382000EF91BF91AF919F918F917F916F915F9138
:103830004F913F912F910F900FBE0F901F901895B1
:1038400081E080930A0180914502909146020196A1
:1038500060ED72E00E9483219093460280934502BE
:1038600065E070E00E94832167FD6FE7809144026C
:10387000823041F4603451F480916F008E7F8093E8
:103880006F0004C0813011F46F37B1F3E62FF0E020
:10389000EC59FD4F2491A0918600B091870030E053
:1038A0000E947B222FEF30E040E050E00E9459223E
:1038B000C9016AE070E00E948321809143028695ED
:1038C00086958695282F269FC001279F900D11244D
:1038D0000E94230590938D0080938C00A0CFCDB7DC
:1038E000DEB7A9970FB6F894DEBF0FBECDBF85B780
:1038F000806885BF85B7806885BF84B7877F84BFB0
:103900000FB6F894A895809160008861809360005C
:10391000109260000FBE80E890E00FB6F89480939C
:103920006100909361000FBE88ED95E090936D016A
:1039300080936C010E947E020E941F038091E2002E
:1039400084608093E200789480916E028823A1F0D5
:103950001091E9001F709091EC00892F817090FD0B
:1039600080E8182B1092E9008091E80083FD0E9406
:10397000F00C1F701093E90082E084BD93E095BDC8
:103980009AEF97BD80936E000E945A0B811102C07E
:103990000E94F40A05E411E0D8018D918D018F3F5A
:1039A00011F00E94DA05B1E00B341B07A9F70BE414
:1039B00011E0FCE5EF2EF1E0FF2EF80181918F017F
:1039C0008F3F11F00E94DA05E016F106B1F788E1A9
:1039D000EBE2F2E0DF01282F1D922A95E9F7E7EFED
:1039E000F1E0DF011D928A95E9F790E080E00E9406
:1039F0000422863E9E4F21F40E945A0B811168C01A
:103A000066EE7EEF90E080E00E94382260E082E087
:103A100090E00E941A2281E080930F0261E083E02F
:103A200090E00E941A2260E074E184E090E00E943D
:103A3000382260E086E090E00E941A2260E087E091
:103A400090E00E941A2240E050E0BA0188E090E045
:103A50000E942C2260E084E290E00E941A2260E042
:103A600087E190E00E941A2260E08CE090E00E94E2
:103A70001A2260E08DE090E00E941A2219821A82D8
:103A80001B821C821D821E821F82188648E050E025
:103A900068E170E0CE0101960E940A2240E050E009
:103AA000BA0180E290E00E942C2280E00E94710A1C
:103AB0000E94F40A40E050E0BA018FE090E00E94DA
:103AC0002C2240E050E0BA0183E190E00E942C22D9
:103AD00082E090E00E94FC218093110284E090E05B
:103AE0000E94042290935B0280935A020E94E41089
:103AF000EFEFF6E721E0E150F0402040E1F700C0B1
:103B000000000E94E41080912B0280FF08C06FEF3C
:103B10007FEF90E080E00E9438220E944D0A83E00F
:103B200090E00E94FC210E94F6083A9A4298399A45
:103B30004198279A2F988AE08093800089E18093AA
:103B400081008FEF9FEF90938700809386000E9403
:103B5000340C8091430281FF0BC0109246021092F8
:103B600045021092440280916F00816080936F0043
:103B70000E94340C80E091E09093570280935602AB
:103B800001E080916E02E8E1FE2E1AE1853009F431
:103B9000C5C00E94E41072E1272E72E0372EEBE2DE
:103BA000F2E0F9A7E8A7DF01F101C190D190E1901F
:103BB000F1904D915D916D917D9122E0EA32F20795
:103BC00009F4BAC0C416D506E606F70671F310E08C
:103BD000A8A5B9A5CD90DD90ED90FD90B9A7A8A7B7
:103BE000F10141905190619071901F014C145D045E
:103BF0006E047F0409F43FC04C245D246E247F24AE
:103C00001FA2812C912C54018394D301C2018821DD
:103C10009921AA21BB21892B8A2B8B2BE9F0FFA1AB
:103C2000F9A31AA30E94EA039CA38BA321E02DA36E
:103C300091E0B701A601482159216A217B21452B3A
:103C4000462B472B09F490E09EA349A15AA16BA1F2
:103C50007CA18DA10E94DF198FA18F5F8FA3880C9B
:103C6000991CAA1CBB1C813181F6F1013497C082DA
:103C7000D182E282F3821F5F163009F0A9CF8FB79D
:103C8000F89440915D0250915E0260915F027091E4
:103C900060028FBF59C080916E02843051F180E084
:103CA0000E94C10580E00E94DD0910925C0288E15B
:103CB00090E0A0E40FB6F894A895809360000FBE42
:103CC000A093600083B7817F846083BF83B78160E6
:103CD00083BF7894889583B78E7F83BF0FB6F8949F
:103CE000A8958091600088618093600010926000C8
:103CF0000FBE80916D02882389F00E94E410EBE2F0
:103D0000F2E081919191A191B191892B8A2B8B2B1A
:103D100009F0BBC2B2E0E334FB0799F780916E0271
:103D2000853009F4B8CF0E94BF0C0E94340C0E9469
:103D30009F040E94DD092DCFC416D506E606F706BE
:103D400009F045CF0E946B1A86E0EEE4F2E0DE0156
:103D5000119601900D928A95E1F7C0904F02F09074
:103D60005002E0905102D0905202109153021092F2
:103D700050021092510210925202109253028F2D53
:103D80008E2909F445C080914C0290914D020E9409
:103D9000DB039C0190914702992309F49FC22531CE
:103DA0003105B0F19F3F19F09F5F90934702FF20CC
:103DB00059F00E94F5049FEF1F140CF491E0899FC5
:103DC000802D112480935002EE2059F00E94F504BA
:103DD00091E01E140CF09FEF899F802D1124809399
:103DE000510280915002882399F0B0905102BB207B
:103DF00079F00E941505882309F4B6C0809350021B
:103E00008B2D0E941505882309F4B1C080935102BF
:103E10008D2D812B09F445C080914A0290914B026F
:103E20000E94DB039C0190914802992309F451C23E
:103E300021353105B0F19F3F19F09F5F9093480203
:103E4000DD2059F00E94D3049FEF1D140CF491E083
:103E5000899F802D112480935202112359F00E94D2
:103E6000D30491E011160CF09FEF899F802D11244F
:103E70008093530280915202882399F0D09053028C
:103E8000DD2079F00E941505882309F473C0809322
:103E900052028D2D0E941505882309F46EC080936F
:103EA000530280914F028C1117C0809150028823D9
:103EB00011F0F81211C020915102222311F0E212E8
:103EC0000BC090915302992311F0191305C0309142
:103ED0005202332309F4EFC10E94AC0486E0FE01D4
:103EE0003196AEE4B2E001900D928A95E1F70E941E
:103EF0009F0490912A02891779F080932A029FB734
:103F0000F89440915D0250915E0260915F02709161
:103F100060029FBF0E94DD0980916E02843009F02B
:103F200030CE83E08093E9008091E80082FF29CEC3
:103F30008091E80090E085FF05C00E949D028823E3
:103F4000F9F091E08091E8008B778093E800992365
:103F500009F417CE8981EFEFE80FE331D0F5F0E0F7
:103F6000EE52FD4D0C94AB210093500249CF0093CB
:103F700051024ECF009352028CCF0093530291CF47
:103F800040E2E42EF12CDE0111966D018091E800F3
:103F900085FD0AC08091E8008B778093E8000E943D
:103FA0009D02882399F3CDCF8091F100F601819392
:103FB0006F01F1E0EF1AF10849F7C3CF1A828CE0E4
:103FC0008B8324C08A81823009F47AC128F481303D
:103FD00061F08FEF89831AC0833009F18430C9F70B
:103FE0001B821C821D821E8211C02FB7F894609123
:103FF0005D0270915E0280915F02909160022FBF1E
:104000000E94B1216B837C838D839E8340E250E0CC
:10401000BE016F5F7F4F82E00E94E909B2CD2B8124
:10402000822F90E0FE013196275F8630910570F770
:10403000DC01AA0FBB1FAA0FBB1FA55DBD4F3C91A2
:1040400011964C91119712965C915383448335835A
:10405000019633962813E9CFD9CF8A81823051F067
:10406000853009F0B6CF8091430280FF0EC00E94D8
:10407000350BCCCF6B817C818D819E810E94B121DB
:1040800088E290E00E941A22C1CF0E94420BBECF6C
:104090004C816B818A810E94730B9827892798270E
:1040A0009E838D83B3CF2D813E81322723273227F4
:1040B0004C816B818A810E949A0AA8CF0E94C00A13
:1040C000A5CF9A81913009F084CF8830F1F0893002
:1040D000B9F18B81813049F0823009F097CF8C8122
:1040E000811110C00E940A0B91CF8C812AE0829F1F
:1040F000C00111246FEF70E00E948321862F0E947F
:10410000C10584CF0E94200B81CF8B81813049F083
:10411000823009F07BCF80914302869581708C8339
:1041200075CF80914302869586958695AFEF8A9FDD
:10413000C00111246AE070E00E9483216C8366CF85
:10414000809143020E94040B61CF80E18A835ECF9D
:1041500084E08A8387EA34CFEA80FB80FE24EF2460
:10416000FE24FE0131966F016C80CF01860D911DFA
:104170003C01C701875A9C4F6C147D0409F446CF5B
:10418000A7EAEA16A4E0FA0658F40E94FC21F60118
:104190008483BFEFEB1AFB0AEFEFCE1ADE0AE9CFFA
:1041A000D60114961C92F5CFEA80FB80FE24EF2402
:1041B000FE24CE0101963C01CC80CE0CDF2CD11C1C
:1041C000C701875A9C4FCE14DF0409F41FCFA7EA1A
:1041D000EA16A4E0FA0620F4F30164810E941A2290
:1041E000FFEF6F1A7F0A2FEFE21AF20AE9CF0E945F
:1041F0008A0A0CCF84E0AACFEA80FB80FE24EF2459
:10420000FE24CE0101966C016C80DC01A60DB11D6F
:104210003D01C70189966C147D0409F4F7CEB0E323
:10422000EB16B3E0FB0658F40E94FC21F6018483F0
:10423000BFEFEB1AFB0AEFEFCE1ADE0AEACFD60188
:1042400014961C92F5CFEA80FB80FE24EF24FE2416
:10425000CE0101963C01CC80CE0CDF2CD11CC701D5
:104260008996CE14DF0409F4D1CEA0E3EA16A3E0C8
:10427000FA0620F4F30164810E941A22FFEF6F1AFC
:104280007F0A2FEFE21AF20AEACFF9BC19BD09B48E
:1042900000FEFDCF8091D8008F7D8093D800809163
:1042A000E00082608093E0008091E00081FDFCCF1F
:1042B0000E94BF0C33CD822B892B09F40FCE0CCE7C
:1042C00088E290E00E94FC211B821C821D828E836A
:1042D0009DCE2B30310508F0B0CDE3CD2B3031052C
:1042E00008F062CD95CDDB018F939F930E944E2203
:1042F000BF91AF91A29F800D911DA39F900DB29F82
:10430000900D11240895AA1BBB1B51E107C0AA1FE1
:10431000BB1FA617B70710F0A61BB70B881F991F66
:104320005A95A9F780959095BC01CD01089597FB0A
:10433000072E16F4009407D077FD09D00E94832140
:1043400007FC05D03EF4909581959F4F0895709598
:1043500061957F4F0895EE0FFF1F0590F491E02DBA
:10436000099469279627692778278727782708954A
:104370002F923F924F925F926F927F928F929F9275
:10438000AF92BF92CF92DF92EF92FF920F931F9363
:10439000CF93DF93CDB7DEB7CA1BDB0B0FB6F89414
:1043A000DEBF0FBECDBF09942A88398848885F8454
:1043B0006E847D848C849B84AA84B984C884DF80C5
:1043C000EE80FD800C811B81AA81B981CE0FD11DA9
:1043D0000FB6F894DEBF0FBECDBFED010895FB010F
:1043E000DC0104C08D910190801921F441505040AE
:1043F000C8F7881B990B0895F999FECF92BD81BD2E
:10440000F89A992780B50895A8E1B0E042E050E01D
:104410000C944022DC01A40FB51F4150504048F0DD
:10442000CB01840F951F2E910E941B2241505040BA
:10443000D0F70895262FF999FECF92BD81BDF89A45
:10444000019700B4021639F01FBA20BD0FB6F894D8
:10445000FA9AF99A0FBE08950396272F0E941B22FD
:104460000E941A22252F0E941B22242F0C941B220B
:104470000196272F0E941B220C941A22DC01CB01EB
:10448000FC01F999FECF06C0F2BDE1BDF89A319664
:1044900000B40D9241505040B8F708950E947B221D
:1044A000A59F900DB49F900DA49F800D911D112488
:1044B0000895A1E21A2EAA1BBB1BFD010DC0AA1F65
:1044C000BB1FEE1FFF1FA217B307E407F50720F07D
:1044D000A21BB30BE40BF50B661F771F881F991FF8
:1044E0001A9469F760957095809590959B01AC0141
:1044F000BD01CF010895A29FB001B39FC001A39F4A
:10450000700D811D1124911DB29F700D811D11240C
:10451000911D0895F894FFCFD10DF90D9C0FF90D61
:104520009C0F2C0E4D0E9C0F4B0F580FC413CC1329
:10453000FE13CE13EA1308141F149A140F15A214B5
:104540006C147014A6147414AA14B61480140815EC
:104550008414BA148814BE14E6148C14C214ED1416
:104560009214C814D0147814AE147C14B214961497
:10457000CC14DC14F614061566149E141615681572
:104580006815A215A21555166F16CC15CC15741604
:10459000E116F216F21634143814291430143C14AF
:1045A00040144414DE1FE21F2D20482053205E20BB
:1045B000612061206120E91FE91FA520A820AC200F
:0A45C000D420F720FA20FC2023216C
:1045CA00D803390A320A2B0A240A0101818283E2BA
:1045DA0000E900EA00B500B600B700CD008301CCBF
:1045EA00008A019201940121022302240225022653
:1045FA000227022A02B300B4006F0070009F01CBA9
:10460A00019F02A00263F336006764F5F6F7010220
:10461A0035343332F2F1F0F4316566604422B67013
:0C462A00014E019800C203DB03FB0300FB
:00000001FF
