:100000000C9425020C945D020C945D020C945D022C
:100010000C945D020C945D020C945D020C945D02E4
:100020000C945D020C945D020C94CB1B0C94871B0A
:100030000C94C81C0C945D020C945D020C945D023F
:100040000C945D020C945D020C945D020C945D02B4
:100050000C94EF1C0C94A41C0C945D020C945D0297
:100060000C945D020C945D020C945D020C945D0294
:100070000C945D020C945D020C945D020C945D0284
:100080000C945D020C945D020C945D020C945D0274
:100090000C945D020C945D0205010902A101850228
:1000A0000901A10005091901290815002501950874
:1000B000750181020501093009311581257F9502FD
:1000C0007508810609381581257F95017508810617
:1000D000050C0A38021581257F950175088106C037
:1000E000C005010980A101850319012AB700150186
:1000F00026B700950175108100C0050C0901A1010A
:10010000850419012AA002150126A0029501751087
:100110008100C005010906A1018506050719E0292E
:10012000E7150025019508750181020507190029C9
:10013000EF1500250195F0750181020508190129C7
:1001400005950575019102950175039101C0066041
:10015000FF0961A1010962150026FF0095207508BD
:1001600081020963150026FF00952075089102C0E1
:1001700005010906A101050719E029E71500250178
:10018000950875018102950175088101050719001F
:1001900029FF150026FF009506750881000508193E
:1001A0000129051500250195057501910295017537
:1001B000039101C0000000000000000000000000EA
:1001C000000000000000000000000000000000002F
:1001D00000000000000000007E0F00D4FFFFFFC7FA
:1001E0000000007800000000000000002A2B28001A
:1001F00000000000000000000000000000000029D6
:10020000000000002C1E3420212224342627252E15
:10021000362D3738271E1F2021222324252633334D
:10022000362E37381F0405060708090A0B0C0D0E79
:100230000F101112131415161718191A1B1C1D2F45
:100240003130232D350405060708090A0B0C0D0E65
:100250000F101112131415161718191A1B1C1D2F25
:100260003130354C000000000000000000000001AB
:10027000010203040506080A0C0F1114181C20249F
:10028000292E33393F464C535B626A7179818A92D9
:100290009AA2AAB2B9C1C8CFD5DCE1E7EBF0F4F776
:1002A000FAFCFDFEFFFEFDFCFAF7F4F0EBE7E1DC03
:1002B000D5CFC8C1B9B2AAA29A928A8179716A626D
:1002C0005B534C463F39332E2924201C1814110F40
:1002D0000C0A0806050403020101000000000000EA
:1002E0000000000029003A003B003C003D003E00B9
:1002F0003F004000410042004300440045006800C8
:1003000046004700480035001E001F002000210065
:100310002200230024002500260027002D002E00A7
:100320002A0049004A004B002B0014001A00080064
:10033000150017001C0018000C00120013002F00FD
:10034000300031004C004D004E0039000400160012
:10035000070009000A000B000D000E000F0033001B
:10036000340000002800000000000000E100000050
:100370001D001B00060019000500110010003600CA
:10038000370038000000E500000052000000E000E7
:10039000E300E20000000000000000002C0000006C
:1003A0000000E600E7006500E400500051004F0047
:1003B00009025B00030100A0FA0904000001030127
:1003C00001000921110100012244000705810308F1
:1003D00000010904010002030000000921110100CD
:1003E00001222200070582032000010705030320E4
:1003F00000010904020001030000000921110100AD
:100400000122B6000705840320000112010002004A
:100410000000084E440200000101020001120344E2
:10042000004B002000530061007600650072000060
:100430000012034B00420044004D0061006E006951
:100440000061000000040309040011241FBECFEF67
:10045000D0E1DEBFCDBF04B603FE18C08091C30259
:100460009091C402A091C502B091C6028730904B12
:10047000A740B04B59F41092C3021092C4021092DC
:10048000C5021092C602E0E0F8E7099522E0A2E773
:10049000B1E001C01D92A33CB207E1F711E0A0E07A
:1004A000B1E0E2E2FAE402C005900D92A237B10792
:1004B000D9F70E94671D0C94B6240C940000482FB5
:1004C0002091BB029091820257E0291302C080E084
:1004D000089530E0529FF001539FF00D1124ED5725
:1004E000FD4F8181681306C08081481303C0858158
:1004F0008111EECF2F5F3F4F2770E7CFE8EDF0E09F
:1005000080818C7F80831092E2001092DA0010923A
:10051000E100A0EEB0E08C9181608C9380818F77B8
:10052000808319BCA7EDB0E08C918E7F8C93808185
:100530008F7E808310926B0208952091E4003091A9
:10054000E50095E6A9012091EC00822F817020FF43
:1005500006C08091E80080FF06C080E008952091E9
:10056000E80022FD1AC080917802882389F0853046
:1005700089F08091EB0085FD0FC02091E40030915F
:10058000E50042175307F9F29150E1F684E008952F
:1005900082E0089583E0089581E0089580917A02D1
:1005A00087FF13C08091E80082FF06C08091E800B9
:1005B0008B778093E80004C0809178028111F2CF9C
:1005C0000895809178028823D9F38091E80080FF14
:1005D000F8CF8091E8008E77ECCF982F9093E900C8
:1005E000242F762F50E0891731F07091EC00209184
:1005F000ED005091F00021FD07C09F5F973071F72B
:100600008093E90081E008953091EB003E7F3093C4
:10061000EB003091ED003D7F3093ED003091EB0029
:1006200031603093EB007093EC002093ED00509319
:10063000F0002091EE0027FDE0CF80E00895B0E0CB
:10064000A0E0E5E2F3E00C94C322C8EDD0E088819D
:100650008F7E8883E7EDF0E080818160808381E098
:1006600080936B0288818C7F888302EE10E0D80132
:100670001C921092DA0081EEC82ED12CD6011C9269
:1006800088818F77888388818068888388818F7D3F
:10069000888380818068808319BC109278021092D0
:1006A0007902109277021092760290EEE92EF12CE8
:1006B000F70180818B7F808388818160888342E01D
:1006C00060E080E00E94ED02D6018C918E7F8C93D9
:1006D000F801808181608083808188608083D70178
:1006E0008C918E7F8C93888180618883CDB7DEB7B3
:1006F000E8E00C94DF22FC0180918002909181025D
:1007000086179707A0F06115710529F49091E8000C
:100710009E779093E80090E06115710551F4911176
:1007200008C08091E80082FF33C080E00895BC01DA
:10073000F2CF809178028823B9F18530B9F18091A8
:10074000E80083FD2FC08091E80082FDEACF809110
:10075000E80080FFE1CF2091F2003091F3006115B5
:10076000710519F02830310558F091E02830310535
:1007700009F090E02091E8002E772093E800CCCF9C
:1007800081918093F100615071092F5F3F4FE7CF56
:1007900080917802882341F0853041F08091E80013
:1007A00083FFBFCF81E0089582E0089583E008953C
:1007B00080916D0208959C014FB7F8948091670273
:1007C00090916802A0916902B0916A024FBF821BAA
:1007D000930B08952FB7F894809167029091680267
:1007E000A0916902B0916A022FBF08959091110102
:1007F0009923D1F09091640297FF16C0E82FE695F7
:10080000E695E695EE31E0F4F0E0E458FE4F282F4F
:10081000277081E090E001C0880F2A95EAF7809563
:100820009281892382830895E6E7F1E0919189130B
:1008300003C0DF0111971C9291E0EC37F907B1F783
:100840000895909111019923C1F09091640297FF4E
:1008500014C0E82FE695E695E695EE31F8F4F0E061
:10086000E458FE4F877021E030E001C0220F8A95E6
:10087000EAF78281822B82830895A6E7B1E0EFEF49
:1008800090E02D91821751F0EF3F19F4211101C032
:10089000E92F9F5F9630A9F7EF3F09F408950E2ED8
:1008A000000CFF0BEC58FE4FE6CFA3E0B0E0EBE509
:1008B000F4E00C94C922209162023091630228175F
:1008C0003907A1F09093630280936202E091600285
:1008D000F0916102309751F024E029839B838A8351
:1008E0000084F185E02DCE01019609952396E2E082
:1008F0000C94E522A3E0B0E0E0E8F4E00C94C92217
:1009000020915E0230915F0228173907A1F0909381
:100910005F0280935E02E0916002F0916102309785
:1009200051F023E029839B838A830084F185E02DA5
:10093000CE01019609952396E2E00C94E522E09120
:100940006002F0916102309729F00190F081E02D72
:100950000995089580E008950E94EA039C01909112
:100960005A0280915B02982B21F03093570220931A
:10097000560290915C0280915D02982B21F0309399
:10098000550220935402E0916002F0916102309789
:1009900049F082E0809358020680F781E02D88E5D7
:1009A00092E0099508958091530280FD16C081FD63
:1009B00016C082FD16C0809152028823A1F08832B1
:1009C00080F428E0829FC001112468E270E00E9458
:1009D0009822862F672B39F0089582E0089584E0ED
:1009E000089588E0089581E008958091530280FD84
:1009F00014C081FD14C082FD16C08091510288236D
:100A000081F08E3180F420E5829FC00111246EE1D7
:100A100070E00E949822862F089584E1089588E26C
:100A2000089588E0089580E50895282F35EB230385
:100A3000C001112497FF04C080589109892F08959F
:100A400080589F4FFBCFB0E0A0E0E9E2F5E00C94C6
:100A5000BF228C0180918600909187006CE070E04D
:100A60000E9484226017710758F0C80169E070E0A5
:100A70000E948422CB01CDB7DEB7ECE00C94DB22E0
:100A80008091860090918700E0908600F09087002A
:100A9000C0908600D0908700C6E0D0E0BE010E94E2
:100AA000842230E020E0060F171F211D311D480170
:100AB000590185E0880C991CAA1CBB1C8A95D1F7AA
:100AC000C701BE010E948422F12CE12CA7019601EE
:100AD000260F371F411D511DC501B4010E948524F9
:100AE00069017A01E0918600F0918700CA01B9019D
:100AF0000E9474229B01AC01DF010E947A249B01B9
:100B0000AC01C701B6010E9474222FE0969587952B
:100B1000779567952A95D1F7009186001091870007
:100B200030E020E0061717072807390708F0A2CFA2
:100B300060918600709187009DCF8B30E8F4811121
:100B40001CC090918000977F90938000A0918600B8
:100B5000B0918700282F30E00E94A7242AE030E0DF
:100B600040E050E00E948524C9010E942305909333
:100B70008D0080938C0008958AE0909180009860A9
:100B8000E3CF282F220F220F220F90914D02977052
:100B9000922B90934D02987F21E009F420E09091F0
:100BA0004D0220FB90F990934D020E949D050895FF
:100BB00080E00895F894E82FE295EF70F0E031A11D
:100BC000282F2F7081E090E001C0880F2A95EAF766
:100BD000982F9095932391A392A1892B82A3789427
:100BE00008959091640292FF10C041E0282F247173
:100BF000243009F040E031E0282F2871283009F036
:100C000030E0431711F02CE0822793FF10C041E041
:100C1000282F2471243109F040E031E0282F287179
:100C2000283109F030E0431711F02CE08227309191
:100C3000650230FF10C051E0282F2171213009F0EA
:100C400050E041E0282F2871283009F040E0541787
:100C500011F029E0822731FF10C041E0282F2171D7
:100C6000213109F040E031E0282F2871283109F0C6
:100C700030E0431711F029E0822794FD877E089524
:100C800082389105B9F1B0F48133910509F47DC042
:100C900048F48932910509F46DC08A32910509F44E
:100CA0007BC008958533910509F45FC089339105B0
:100CB00009F10895833E9105D9F138F4803E9105FC
:100CC00029F1823E910579F10895863E9105D9F189
:100CD000873E910509F43EC0843E910541F520917F
:100CE000650221FF24C08091640284FD19C087EE53
:100CF00090E0089520916402237009F05AC0209179
:100D0000650223FF14C089E290E0089520916402F7
:100D100020FD38C03091650230FF09C024FF43C078
:100D200090E080E008952091640222FDF7CF0895BD
:100D30002091640222FD3AC03091650230FD39C035
:100D400024FFF5CFEDCF2091640223FFF0CF24FDE7
:100D5000E7CFCDCF2091640223FD2EC030916502F4
:100D600031FFEECF84EE90E008952091640225FFDC
:100D7000DECFC9CF2091640225FD21C020916502FC
:100D800023FFD5CF89E390E0D2CF2091640226FFE4
:100D9000CECF8AE290E008952091640226FFC7CF6B
:100DA00081E390E0089583EE90E0089582EE90E074
:100DB000089580EE90E0089586EE90E0089585E332
:100DC00090E008951F93CF93DF930E944006EC01BB
:100DD000C11580E5D807F0F5C11580E4D80708F003
:100DE0009CC0C03ED10520F5CD3CD10508F082C0A5
:100DF000C83AD10578F4C53AD10508F073C0C130BE
:100E0000D10519F1209709F1C430D105F0F4D0E0F3
:100E1000C0E01BC0C33CD105D0F7C85AD0E0CC0F0E
:100E2000DD1FCB5EDE4F0990D881C02DD4640DC08C
:100E3000C11580E2D80708F0D1C0C11581E0D807FC
:100E400008F05AC0C83ED10510F7CE01DF91CF910E
:100E50001F910895C03682E5D80718F5C03482E5A1
:100E6000D80708F06BC0C03282E5D80708F05FC031
:100E7000C11582E5D80708F497C02C2F2695269532
:100E800080E2289F900111248C2F8370C1E0D0E074
:100E900002C0CC0FDD1F8A95E2F7C22BD32BDD6891
:100EA000D4CFC03A82E5D80760F4C03882E5D807CD
:100EB00008F459C0CF71D0E0DC2FCC27C46FD06AC2
:100EC000C4CFC03C82E5D80708F462C0C03E82E5CA
:100ED000D80708F09CCFDC2FCC27CC27DF71C06F60
:100EE000D06AB3CFC55AD0E0CE5EDE4FC881D0E025
:100EF000D064ABCFD065A9CF8D2F0E94F105182FFC
:100F0000CE0199270E944006C12FD0E0DC2FCC27CC
:100F1000CC27DF71C82BD92B98CFCE0199270E94FF
:100F20004006CC27DF70C82BD92BD06A8ECFCF716B
:100F3000D0E0DC2FCC27C16FD06A87CF2C2F26952D
:100F40002695277080E2289F900111248C2F8370B2
:100F5000C1E0D0E002C0CC0FDD1F8A95E2F7C22BC2
:100F6000D32BDC6872CF2C2F26952695277080E234
:100F7000289F900111248C2F8370C1E0D0E002C023
:100F8000CC0FDD1F8A95E2F7C22BD32BDA685DCF39
:100F90008C2F8F710E94F105C82FD0E0DC2FCC2759
:100FA000CC27DF71D06251CF8C2F8F710E94F10559
:100FB00055E0D695C7955A95E1F7CF70D0E0DC2F74
:100FC000CC27282F30E084FF05C044E0220F331FD8
:100FD0004A95E1F7C22BD32BD06937CF8D2F8F7174
:100FE0000E94F105182FCE0199270E944006C12FBB
:100FF000D0E0DC2FCC27CC27DF71C82BD92BD2CF68
:1010000080959091F70198239093F701089580912E
:10101000F7019091CE01892B9091CD01992391F008
:10102000892B90911101992371F09091640297FF9F
:101030000AC09EE12EE731E040E0915040F44111BA
:101040001092CD01089596E026E731E0F5CFF90141
:1010500051919F01552389F34F5FEFCF8091BB02E0
:1010600090918202981301C008958F5F8770FACF24
:10107000292F963078F5813168F590E031E1239F92
:10108000800D911D1124682F677023E09695879538
:101090002A95E1F7FC01EE0FFF1FE80FF91FE2565A
:1010A000FE4F50E040E080E0219130E0062E02C08B
:1010B000369527950A94E2F721703327042E01C054
:1010C000220F0A94EAF7822B4F5F5F4F433051059E
:1010D00059F7089580E00895292F963098F58131C9
:1010E00088F590E031E1239F800D911D1124282F78
:1010F000277041E001C0440F2A95EAF723E0969556
:1011000087952A95E1F7FC01EE0FFF1FE80FF91F05
:10111000E256FE4F30E020E070E05191DF01119780
:10112000CB01022E02C0969587950A94E2F7817052
:1011300081958527842385278C932F5F3F4F23300C
:10114000310559F7089580931A02089590911A0273
:1011500021E030E0F90101C0EE0F8A95EAF7D901EC
:1011600002C0AA0FBB1F6A95E2F7EA2B01C0220F4B
:101170004A95EAF7892F8E23E81305C0292B822F81
:101180000E94A308089520952923F9CF21E030E09B
:1011900001C0220F8A95EAF7209580911A028223D6
:1011A0000E94A30808959091CC0180958923809393
:1011B000CC01282F277069F4891759F090916502A6
:1011C00092FF07C08695869586950E94C608109264
:1011D000CC01089521E030E001C0220F8A95EAF7A2
:1011E00080911A02822B0E94A3080895809319020D
:1011F000089540915A0290915C0220915D0266230D
:1012000009F469C0942B922B20915B02922B31F050
:1012100098E09093510291E0909352028D3C41F4FA
:101220000E94F504819580935B020E94AC040895AE
:101230008E3C19F40E94F504F6CF8F3C31F40E94E5
:10124000F504819580935A02F0CF803D19F40E94F5
:10125000F504F8CF893D29F40E94D30480935C0201
:10126000E4CF8A3D21F40E94D3048195F7CF8B3DD2
:1012700031F40E94D304819580935D02D6CF8C3DDA
:1012800019F40E94D304F8CF9FE2980F983070F4BD
:10129000815D990B21E030E001C0220F8A95EAF7C9
:1012A00080915902822B80935902BFCF8D3D31F43A
:1012B00080915302816080935302B7CF8E3D21F419
:1012C000809153028260F7CF8F3D09F0AECF8091BD
:1012D00053028460F0CF8D3C59F480915B0287FF0C
:1012E0000DC010925B0241110BC01092510208C058
:1012F0008E3C81F480915B0218169CF3442381F0AC
:1013000080915C0290915D02892B09F08ECF109242
:1013100052028BCF8F3C49F447FFF0CF10925A0214
:1013200080915B028111ECCFE0CF803D19F414165F
:10133000ACF3E4CF893D29F4191604F710925C024E
:10134000DDCF8A3D19F497FFD9CFF8CF8B3D29F433
:1013500027FFD4CF10925D02D1CF8C3D19F4121625
:10136000CCF3CCCF9FE2980F983090F4815D990B2D
:1013700021E030E0B90102C0660F771F8A95E2F7DD
:10138000CB01809590915902892380935902B6CF61
:101390008D3D31F4809153028E7F80935302AECF06
:1013A0008E3D21F4809153028D7FF7CF8F3D09F060
:1013B000A5CF809153028B7FF0CF81FF06C0429A68
:1013C00082FF05C0419A81E008954298F9CF419883
:1013D000FACF0F931F93CF93DF938B01EA01909184
:1013E0007802943061F58093E9008FEF9091E800E6
:1013F000815095FD06C095ED9A95F1F70000811199
:10140000F5CF8091E80085FF1AC00E949D028111EE
:1014100011C08091E80085FD06C08091E8008E77BC
:101420008093E800F2CFF80181918F018093F10061
:10143000219779F78091E8008E778093E800DF911B
:10144000CF911F910F91089543E050E0BC0184E0DB
:101450000E94E909089546E050E0BC0184E00E9442
:10146000E909089540E250E0BC0184E00E94E909E6
:101470000895CF93DF93EC0148E050E0BC0181E098
:101480000E94E90988E0FE01AEE6B2E001900D920B
:101490008A95E1F7DF91CF91089581E08093E00094
:1014A00080E28093D8001092C9008FE19EE40197FA
:1014B000F1F700C0000087E090EBDC018093C302ED
:1014C0009093C402A093C502B093C60288E19CE049
:1014D0000FB6F894A895809360000FBE90936000BB
:1014E000FFCFCF93C82F6FEF811164E285E290E0C8
:1014F0000E9446246FEFC11165E086E290E00E94F1
:1015000046246FEFC11166E087E290E00E94462416
:10151000CF910895CF93DF93C9E5D3E060E0CE018A
:101520000E9446242196C11588E0D807B9F7DF91BB
:10153000CF9108951F93CF93DF93122F8430E0F45F
:101540006630D0F44131C0F4C42FD0E0CC0FDD1FA1
:1015500092E2699FC00DD11D11249CEC899FC00DA2
:10156000D11D1124632FCE0189960E944624612F3C
:10157000CE018A960E944624DF91CF911F91089553
:10158000EF92FF920F931F93CF93DF93C0E084EE0F
:10159000E82E82E0F82ED0E01CC0402F21E030E0A1
:1015A000C11108C0F801EE0FFF1FEE0DFF1D859160
:1015B00094919C016D2F8C2F0E949A0A0F5F1F4FF0
:1015C0000131110551F7DF5F82E2E80EF11CD630E0
:1015D00019F010E000E0E1CFCF5FC430C1F6CDB725
:1015E000DEB7E6E00C94E12280E00E94710A60E040
:1015F00088E290E00E9446240E94C00A0E948A0A63
:1016000081E00E94710A0895682F86E090E00E94B0
:101610004624089580914D0281FF11C08D7F8093F3
:101620004D020E94040B80916F008E7F80936F00AB
:1016300080914D028695869586950E949D05089518
:1016400080914D0281FD10C0826080934D020E9406
:10165000040B1092500210924F0210924E02809191
:101660006F00816080936F00089580914D0280FF2C
:1016700008C08E7F80934D020E94040B80E00E9480
:101680009D05089580914D0280FD13C08160809377
:101690004D02813019F489E080934D0280914D0212
:1016A0000E94040B80914D028695869586950E9436
:1016B0009D05089585E290E00E942824843289F4F3
:1016C00086E290E00E942824853059F487E290E079
:1016D0000E94282491E0863009F090E0892F8170E3
:1016E000089580E0FCCF0F931F93CF93DF93843056
:1016F00030F5663020F5413110F5C42FD0E0CC0F25
:10170000DD1F22E2629FC00DD11D11243CEC839F9E
:10171000C00DD11D1124CE0189960E942824082FC6
:1017200010E0102F0027CE018A960E9428249801ED
:10173000282BC901DF91CF911F910F91089590E05F
:1017400080E0F8CF462F763040F4613130F48430B9
:1017500020F4672F0E94730B089590E080E00895B5
:10176000CF92DF92FF920F931F93CF93DF936C0181
:1017700000911A0280911902082BC3E0D0E010E01A
:10178000FC2EC8010C2E02C0959587950A94E2F7AD
:1017900080FD0CC02197A0F7F12C8F2DDF91CF9108
:1017A0001F910F91FF90DF90CF900895B6018C2F7D
:1017B0000E94A20B0E94E206019761F3EECFCF9345
:1017C000DF93EC010E94B00BBE010E94A20B0E94AD
:1017D000E206DF91CF910895FC0124812223C1F01C
:1017E000808191810E94DF0B92959F70963091F0DD
:1017F00058F4925F9F70923058F4803F19F030F4A3
:10180000883E30F481E008959A5FF4CF843FD1F3AD
:1018100080E00895883EB0F3813FD1F7F3CFA6E092
:10182000B0E0E5E1FCE00C94C82249835A83498189
:101830005A819923A1F0222391F0CA010E94B00B92
:10184000182F682F89819A810E946C0869817A819A
:10185000812F0E94A20B2696E3E00C94E422CA0199
:101860000E943808182FF2CF86E090E00E942824CA
:1018700080934D0282FD05C085E580934D020E9454
:10188000040B80914D02883520F08770806580932D
:101890004D0290914D02892F817090FF04C0892FD5
:1018A0008695869586950E949D050895909165027E
:1018B00092FB222720F9281779F080FB92F9909368
:1018C0006502609164027091650284E090E00E947C
:1018D000642482E00E94D3080895A5E2B0E0E3E723
:1018E000FCE00C94B9228E010F5F1F4F88E1D801F4
:1018F0001D928A95E9F78BE4E82E81E0F82E6801C5
:10190000AA24A394B12CF70181917F018F3F09F4A0
:1019100053C0F894E82FE295EF70F0E021A18F70AA
:10192000250102C0440C551C8A95E2F7C201922F92
:10193000982B91A392A18095892382A3789400C0CB
:10194000E1E5F1E041E050E060E070E0412C512C35
:10195000320181918F3F89F0A82FA295AF70B0E03E
:1019600090962C9130E08F7002C0359527958A951E
:10197000E2F7DB01CA0120FF03C080E090E0DC0158
:10198000482A592A6A2A7B2A440F551F661F771F47
:1019900021E0E236F207E9F6F701319780818F3FC7
:1019A00011F00E94DA0530EA3A95F1F7D6014D922E
:1019B0005D926D927C921397B4E0CB0ED11CE1E561
:1019C000EE16E1E0FE0609F09ECF48E150E0B801D6
:1019D00081E092E00E941B247C01892B41F088E188
:1019E000F801A1E0B2E001900D928A95E1F7109222
:1019F000FE011091FD01112309F4C8C00E94EA0301
:101A00002091FB013091FC012C01421A530A9201F2
:101A10009093FC018093FB012F3F310511F008F0FA
:101A20008BC04114510409F483C02D8F4091FF01F4
:101A3000509100021092FD011092FA01E5E3F2E0EC
:101A4000A1E0CA2EA2E0DA2E1A0166E6260E311CAB
:101A500018A260E000E01F8E1E8EAE8DBF8DA40F19
:101A6000B51FBC90AB2CE894A0F8AA2009F447C09D
:101A7000AB2CA6947B2D7170B72EA216130611F015
:101A80000CF05DC07C93711161C080809180A28058
:101A9000B380D6014D905D906D907C90D301C201D2
:101AA00088259925AA25BB25412C512C3201439428
:101AB0000E8C04C0440C551C661C771C0A94D2F78B
:101AC000498E5A8E6B8E7C8E2C013D01898D9A8DAC
:101AD000AB8DBC8D482259226A227B22D301C201E0
:101AE000862B61E0892B8A2B8B2B09F460E0842400
:101AF0009524A624B72480829182A282B382AE8DDF
:101B0000BF8D1196BF8FAE8F519709F0A6CF4F5E54
:101B10005F4F3496B4E0CB0ED11C2416350609F085
:101B20009ACF0093FD016093FE01E8A1E093FA01D2
:101B3000E114F104D1F52DC02FEF30E076CF9D8D6B
:101B4000A91AAA0CA72AAC92012FD9CF18A3D7CFD4
:101B5000772331F040FD04C04170A8A1B9A14C9396
:101B60002F5F3F4F2131310509F051C04196349626
:101B70002816390689F56093FD01BD8DB093FE01ED
:101B80008091FE01A596E2E10C94D522E114F104C6
:101B900031F48091FA01882399F3111106C00E9453
:101BA000EA039093FC018093FB018091FF019091E7
:101BB00000021092FA016091FD01E091FE01ED8FAB
:101BC00001E012E0E5E3F2E01C0126E6220E311C02
:101BD000412C512C32014394D8018D909D90AD90B1
:101BE000BD908D01C080D180E280F380A701960175
:101BF000282539254A255B252AA33BA34CA35DA3B1
:101C000030E020E0AD01445051095F8F4E8FDC0180
:101C1000A20FB31FB9A3A8A353014201022E04C00F
:101C2000880C991CAA1CBB1C0A94D2F74C91742FE7
:101C30007E7FCAA0DBA0ECA0FDA0C820D920EA20AE
:101C4000FB20C114D104E104F10409F481CF711126
:101C500087CFAE8DBF8D4D915D916D917C91482167
:101C600059216A217B21B1E0452B462B472B09F4F2
:101C7000B0E04B2F4A60A8A1B9A14C9340FF0EC021
:101C8000408151816281738184269526A626B726DC
:101C900080829182A282B382B1E0BD8F61E060CF89
:101CA00080911101882359F18091640287FF27C038
:101CB0000E94070880937D0140E250E06FEC71E0E4
:101CC0008CE791E00E941B24892BC1F080E2ECE7B5
:101CD000F1E0AFECB1E001900D928A95E1F7E0916F
:101CE0006002F0916102309749F086E080937C01B8
:101CF0000480F581E02D8CE791E0099508950E941C
:101D000007088093740148E050E06FEE71E084E7CB
:101D100091E00E941B24892B89F388E0E4E7F1E03D
:101D2000AFEEB1E001900D928A95E1F7E09160028B
:101D3000F0916102309711F30280F381E02D84E786
:101D400091E0DBCF1092F70180911101882339F1E6
:101D50008091640287FF23C0EEE7F1E08EE1DF01AE
:101D60001D928A95E9F790E080E00E947A0490E065
:101D700080E00E9455041092CE010E94500E86E031
:101D8000E8E5F2E0DF011D928A95E9F71092510231
:101D900010925202109253020E94AC040895E6E79A
:101DA000F1E086E0DCCFAAE2B0E0E9EDFEE00C94E1
:101DB000C8228AE792E02091F100DC012D93CD0149
:101DC000B2E082389B07B9F780917B02833009F437
:101DD00072C0B8F4813009F449C0823009F4B3C04C
:101DE0008091E80083FF8BC280917A0290917B0200
:101DF0009A3008F084C2E92FF0E0E854FB4D0C94CF
:101E0000AC228A3009F48EC08B3009F471C089305D
:101E100039F780917A02813219F780917E02909190
:101E20007F02009711F00297D9F68091E800877F32
:101E30008093E8008091E80082FF38C08091F20032
:101E40009091F300029731F48091F100813011F00C
:101E5000863021F48091F10080936D028091E8003A
:101E60008B778093E8000E94CE02BACF80917A02ED
:101E7000813A09F0B5CF8091E800877F8093E80030
:101E800080917E0290917F02892B61F468E08EE65A
:101E900092E070E00E947B038091E8008B77809352
:101EA000E8009ECF60E090E080E0F3CF8091780280
:101EB0008111C0CF95CF80917A02813A09F090CFFD
:101EC00080917E0290917F02892B09F089CF8091C9
:101ED000E800877F8093E8008091E80080FFFCCFD6
:101EE000809111018093F1008091E8008E77B9CF45
:101EF00080917A02813209F073CF80917E029091B5
:101F00007F02892B09F06CCF8091E800877F809356
:101F1000E8000E94CE0280917C02809311010E9411
:101F2000A20E5ECF80917A02813209F059CF809162
:101F3000E800877F8093E8000E94CE0280917D02B6
:101F400080936C024DCF80917A02813A09F048CF9C
:101F50008091E800877F8093E8008091E80080FF0F
:101F6000FCCF80916C02BECF803899F0823809F0A6
:101F7000C6C180917E028F70873008F0C0C1809307
:101F8000E9008091EB0085FB882780F91092E90039
:101F900006C08091760290917702911182609091B3
:101FA000E800977F9093E8008093F1001092F10091
:101FB0008091E8008E779FC1882309F48DC182301B
:101FC00009F09DC180917C02811190C180917E02B7
:101FD0008F702FEF280F263008F091C18093E90011
:101FE0002091EB0020FF82C1933031F48091EB000F
:101FF00080628093EB007AC19091EB0090619093A6
:10200000EB0021E030E001C0220F8A95EAF720932F
:10201000EA001092EA008091EB008860EACF81111B
:102020006EC110917C021F778091E3008078812B34
:102030008093E3008091E800877F8093E8000E940E
:10204000CE028091E80080FFFCCF8091E3008068A1
:102050008093E30082E0111183E0809378024FC106
:102060008058823008F04BC120917C0230917D0273
:102070002C3DE3E03E07A1F583E08A838AE2898371
:102080004FB7F894DE01139620E03EE051E2E32FD3
:10209000F0E050935700E49120FF03C0E295EF7009
:1020A0003F5FEF708E2F90E0EA30C0F0C7968D93BF
:1020B0009D932F5F243159F74FBF8091E800877FB0
:1020C0008093E8006AE270E0CE0101960E947B03F3
:1020D0008091E8008B778093E80011C1C096E7CF2C
:1020E00080917E0290917F02432F55274330510506
:1020F00009F44AC078F54130510509F47AC08BE5FE
:1021000090E0E0EBF3E04230510509F0F8C0209197
:10211000E800277F2093E80020918002309181021F
:102120008217930708F49C0140E02115310509F05E
:1021300065C0411163C08091E80082FDC9CF8091E4
:102140007802882329F2853019F28091E80083FF14
:10215000F2CFBECF4132510509F43CC042325105A5
:1021600009F0CDC08330910508F0C9C0FC01EE0F25
:10217000FF1FEB59FE4F0190F081E02D8E599E4FCD
:10218000DC018C9190E01AC0332721303105D1F069
:102190002115310561F02230310509F0B0C0EDE1C3
:1021A000F4E0E4918E2F90E0EDE1F4E007C0E5E487
:1021B000F4E0E4918E2F90E0E5E4F4E0009709F478
:1021C0009EC0A5CFE1E3F4E0E4918E2F90E0E1E33F
:1021D000F4E0F4CF8330910508F091C0880F991F87
:1021E000FC01E559FE4F0190F081E02D89E090E07F
:1021F0008ECF82E190E0EBE0F4E089CF809178022D
:10220000882309F465CF853009F462CF8091E80016
:1022100083FD5ECF8091E80082FD8DCF8091E80044
:1022200080FF83CF8091F2009091F300211531055A
:1022300019F08830910550F041E0089709F040E02E
:102240008091E8008E778093E8006FCF44914093AF
:10225000F1003196215031090196E8CF803809F01C
:102260004EC08091E800877F8093E80080917902DA
:102270008093F1009DCE811142C010917C021230FA
:10228000F0F58091E800877F8093E8001093790251
:102290000E94CE02112311F084E005C08091E3007A
:1022A00087FDFACF81E08093780242E061EC81E023
:1022B0000E94ED0242E261EC84E00E94ED0242E203
:1022C00061EC82E00E94ED0242E260EC83E00E9459
:1022D000ED028091780213C080917C02813079F404
:1022E00081E0933009F080E0809377021092E9005A
:1022F0008091E800877F8093E8000E94CE02809161
:10230000E80083FF0AC08091E800877F8093E8009F
:102310008091EB0080628093EB00AA96E3E00C943E
:10232000E4220E94A20E2FEF84E39CE02150804023
:102330009040E1F700C0000088E19CE00FB6F894FF
:10234000A895809360000FBE90936000FFCF882314
:1023500021F00E9400080E94500E0895882339F051
:102360009091F701982B9093F7010E94500E0895D9
:10237000882309F456C0823879F40E949F0481FFB3
:1023800050C089E30E9421040E94500E89E30E94FC
:10239000F6030E94500E0895833859F40E949F045A
:1023A00080FF3FC083E50E9421040E94500E83E518
:1023B000EECF843859F40E949F0482FF32C087E434
:1023C0000E9421040E94500E87E4E1CF9CEF980FF9
:1023D000913AE8F290E2980F983050F4877091E0CB
:1023E00001C0990F8A95EAF7892F0E940008D1CF82
:1023F0009BE5980F933028F490E080E00E947A04E7
:10240000089598E5980F9B3128F490E080E00E94B1
:102410005504089593E3980F933118F460E00E94F7
:10242000F9080895CF93C82F8823C9F08238C9F4DA
:102430000E949F0481FD13C089E30E9421040E9431
:10244000500E2FEF87EE93E0215080409040E1F74F
:1024500000C0000089E30E94F6030E94500ECF9155
:1024600008958338A1F40E949F0480FDF8CF83E58E
:102470000E9421040E94500E2FEF81EE94E0215023
:1024800080409040E1F700C0000083E5E4CF84384D
:10249000A1F40E949F0482FDE2CF87E40E94210400
:1024A0000E94500E2FEF81EE94E02150804090402A
:1024B000E1F700C0000087E4CECF8CEF8C0F813AAB
:1024C00088F580911101882301F18091640287FFD2
:1024D0001CC0EC2FE695E695E695F0E0E458FE4F3B
:1024E000828190E04C2F477021E030E002C0220F43
:1024F000331F4A95E2F782239323892B79F08C2F9F
:102500000E94F6030E94500E09C0E6E7F1E08191B7
:10251000C817A9F321E0EC37F207C9F78C2F0E9406
:1025200021049BCF80E28C0F883068F4C77021E0D3
:1025300030E001C0220FCA95EAF78091F701822BA3
:102540008093F7018ACFEBE5EC0FE33040F4F0E045
:10255000EE5EFE4F808190E00E947A0480CFE8E535
:10256000EC0FEB3150F4F0E0EE0FFF1FEB5EFE4F8F
:10257000808191810E94550472CF83E38C0F833157
:1025800008F06DCF61E08C2F0E94F90868CF1F938F
:10259000CF93DF93182FEB010E941212209739F48A
:1025A000812F0E94B811DF91CF911F9108958FE97B
:1025B0009FE00197F1F700C000002197EFCF0F9344
:1025C0001F93CF93DF93C62FD42F022FFC01858159
:1025D0008823A9F06093BE020E94EA039093BD0293
:1025E0008093BC02C77081E001C0880FCA95EAF7EA
:1025F0000E94AE11DF91CF911F910F9108958091AC
:10260000BE02681334C08091BC029091BD020E944A
:10261000DB03883C910558F510E21D0FCD17B9F08A
:1026200080E28C0F883040F4C77081E001C0880FD1
:10263000CA95EAF70E94A711183048F481E09D2F4F
:10264000977001C0880F9A95EAF70E94AE1170E06A
:1026500060E0802F0E94C712183060F6D77081E0CA
:1026600001C0880FDA95EAF70E94A711C3CFC7709F
:1026700081E001C0880FCA95EAF7F6CFA8E0B0E084
:10268000E4E4F3E10C94BB228C01DC0114968C9100
:102690001497882309F4BDC021E04C9111965C91F8
:1026A000119712966C91129713967C911397159629
:1026B0009C910E940F0C7C01F8018581882309F40C
:1026C00089C5C70197578038910508F041C1FFE0DF
:1026D000FE1508F48FC08FEF97E00E942824811127
:1026E00089C069E5A62E63E0B62EE1104DC0FE015B
:1026F000339686E0DF011D928A95E9F75AE0452E70
:102700007501BFEFEB1AFB0AC5010E9428248983DB
:102710001A82882309F46EC0813009F07EC06501F9
:10272000E2E0CE0ED11CC7010E9428248A838823B0
:1027300009F460C09FEF980F9330A0F5F3E0AF0E5F
:10274000B11CC6010E9428248B83882309F452C03F
:102750001C82DE0111967D01F7012081222381F286
:10276000213009F09CC091818281913009F057C0DD
:10277000F2E0EF0EF11C70E060E0893311F460E5E7
:1027800070E00E94C71252C0A11428E0B20691F175
:10279000C5010E942824811101C0EA943FEFA31AC9
:1027A000B30AA3CF56018430A1F642E0E42EF12C07
:1027B00056012FEFA21AB20AC6010E942824E1E0B6
:1027C000F0E0EC0FFD1FEE0DFF1D8083882391F0DC
:1027D0008C3741F4E2E0F0E0EC0FFD1FEE0DFF1D41
:1027E0001082B7CF3FEFE31AF30A650187E0E816DE
:1027F000F104F1F68091CC01877059F0F8018581E0
:10280000882339F08091650282FF03C082E00E9434
:10281000D3082896E0E10C94D72257019ACF923042
:1028200049F422E0E20EF11C0E9412129FEFE91A15
:10283000F90A92CF933031F432E0E30EF11C0E949A
:10284000B811F4CF943021F08FEFE81AF80AEECFE8
:1028500092E0E90EF11C30E020E0B7016F5F7F4F9E
:10286000D70111964C918053990B8A30910560F0F5
:1028700021153105D9F2EFE9FFE03197F1F700C0FA
:10288000000021503109F4CF429EF001439EF00D2B
:1028900011249C012E0F3F1F842F7B01DECFE22FDE
:1028A000F0E0EC51FE4F5490822F869586958695E8
:1028B00090E0FC01EC52FE4F64902770712C022EC8
:1028C00002C0759467940A94E2F7F1E06F227724CE
:1028D000FC01EC53FE4F8490912C022E02C0959483
:1028E00087940A94E2F731E083229924FC01EC54A6
:1028F000FE4FC490D12C02C0D594C7942A95E2F71C
:1029000081E0C822DD246114710419F081EE0E9477
:1029100012128114910419F086EE0E94121270E0D6
:1029200060E0852D0E94C7128114910419F086EE93
:102930000E94B8116114710419F081EE0E94B8115F
:10294000C114D10409F472CF70E060E08CE219CFB9
:10295000F701F857E730F10508F047C4EE53FB4D97
:102960000C94AC228AE00E94C10580914D020E9425
:10297000040B40CF80E0F7CF80914D02982F987FD5
:1029800079F0885080934D02887F91E009F490E0BF
:1029900080914D0290FB80F980934D020E94040BC0
:1029A00080914D028695869586950E949D0522CF41
:1029B00080914D02982F9695969596959A3040F471
:1029C0009F5F990F990F990F8770892B80934D0204
:1029D00080914D028160E0CF80914D0280FF03C065
:1029E0000E94350B07CF0E94420B04CF90914D02FD
:1029F000892F8695869586958F5F8F7197708B301E
:102A000048F4880F880F880F892B80934D0280919E
:102A10004D02BACF90934D02FACF80914D0281FFC3
:102A200003C00E940A0BE6CE0E94200BE3CE26E2F2
:102A300041EE61EEC8010E94DF12DCCE27E245EED6
:102A400065EEF8CF26E241EE60EEF4CF27E245EEE8
:102A500064EEF0CF26E241EE62EEECCF27E245EEE7
:102A600066EEE8CF28E241E0EBCF8091640281601E
:102A70008093640295C080916502886080936502AE
:102A80008FC0809164028260F3CF80916402846081
:102A9000EFCF809164028860EBCF80916502816006
:102AA000EDCF809165028260E9CF80916402806100
:102AB000DFCF809164028062DBCF8091640280640A
:102AC000D7CF0E94A20E809164028068D1CF8091FE
:102AD00064028C60CDCF809165028360CFCF8091FE
:102AE00064028E7FC5CF80916502877FC7CF8091BA
:102AF00064028D7FBDCF809164028B7FB9CF8091BE
:102B00006402877FB5CF809165028E7FB7CF8091B9
:102B100065028D7FB3CF809164028F7EA9CF8091B3
:102B200064028F7DA5CF809164028F7BA1CF0E942C
:102B3000A20E809164028F779BCF80916402837F85
:102B400097CF809165028C7F99CF8091640282FB40
:102B5000992790F921E0922790FB82F990FB83F965
:102B600087CF80916502982F909591708E7F892BE9
:102B700090FB81F983CF90916402892F8F7B96FF20
:102B8000806476CF0E94A20E90916402892F97FBF9
:102B900087F980586DCF61E08EE090E00E94462476
:102BA000609164027091650284E090E00E94642468
:102BB0000E94A20E1FCE60E0EFCF90916402892F99
:102BC0008F7E94FF806154CF90916402892F8E7F15
:102BD00090FF81604DCF90916502892F877F93FF91
:102BE00088604CCF85E36BC280919C01811104C049
:102BF00089E20E94F60365C285E3FBCF81E00E9473
:102C0000EA0803C081E00E94C60843E062E081E078
:102C10000E94A608EFCD82E0F2CF2BE5E2162CE76A
:102C2000F20661F13CE5E3163CE7F306E9F08AE5DC
:102C3000E8168CE7F80609F07AC281E01CC00E9411
:102C4000A20E9FEFA4E3BCE09150A040B040E1F79A
:102C500000C000000E944D0A6FEF7FEF90E080E01F
:102C60000E9464240E9491118091650282FB882752
:102C700080F991E089270E94560C59C280E0FBCF71
:102C8000C7010E943808D82E63C23F2D3F70B32E73
:102C90008F2D807F19F0B29490EFB922AA20B9F05D
:102CA000BB2069F080E28E0D883010F0811009C0E1
:102CB0008091F701B82AB092F7010E94500E8E2D34
:102CC00046C08091CE01B82AB092CE01F6CF8E2DAB
:102CD0000E94B811BB20E9F180E28E0D883010F01F
:102CE000811004C08B2D0E94000806C0B094809112
:102CF000CE01B822B092CE010E94500E2AC08F2D74
:102D00008F70B82E8F2D807F803219F0B29480EFB3
:102D1000B822882059F091E0891609F485C0AA20CC
:102D200009F491C0992009F452C0C9CF809165027D
:102D300082FD49C0AA2009F440C0BB2039F080912F
:102D4000F7018B298093F7010E94500E80E00E94CA
:102D50001212AC2DA850BB0B149720F40E949F04B4
:102D60000E94DD09DD20A9F08091CC0180FD11C019
:102D7000F80115828695869586950E94EA08C80115
:102D80000E943E138091CC018695869586950E947F
:102D9000C60820E0D8014C9111965C9111971296CB
:102DA0006C91129713967C91139714968C911497AB
:102DB00015969C910E940F0C2CCD80E00E94B811BA
:102DC000BB2039F28FCFAA20A1F0911004C08B2D27
:102DD0000E94AE11BECFA1E09A12BBCF8091CD016F
:102DE0009B2D9823B91609F4B4CF8B298093CD017C
:102DF000B0CF9110AECF8B2D0E94A7119091CD0135
:102E00008B2D892329F08B2D809589238093CD01EB
:102E100090919D018B2D892309F49BCF8B2D80955B
:102E2000892380939D0195CFAA2029F0B5E0B9159B
:102E300008F48FCFCCCFE4E0E91508F48ACF8B2DCE
:102E40000E94A71186CF9920D1F3F9E38F1209C010
:102E50002FEF37EE83E0215030408040E1F700C093
:102E600000008E2D0E94B81174CF8F2D8695869507
:102E7000837061F0813009F06CCFC7019370A110AD
:102E800002C080E090E00E94550463CFC7019370B8
:102E9000A11002C080E090E00E947A045ACF6A2D0F
:102EA0008E2D0E94F90855CF8F2D837091F5A110BA
:102EB00050CF4E2D429546954770440F440F8E2DAE
:102EC0008F70042E01C0880F0A94EAF72E2D20710E
:102ED000E4FE07C02FE030E001C0220F4A95EAF778
:102EE00020953F2D369536953370323069F050F489
:102EF00040911902313029F0822B84230E94F60878
:102F000028CF842B822BFACF282B8091190282277D
:102F1000F5CF8695AA2011F08F2D8170882309F4B2
:102F200018CF4E2D429546954770440F440F8E2D75
:102F30008F70042E01C0880F0A94EAF72E2D20719D
:102F4000E4FE07C02FE030E001C0220F4A95EAF707
:102F500020953F2D369536953370323069F050F418
:102F600040911A02313029F0822B84230E94A30859
:102F7000F0CE842B822BFACF282B80911A02822745
:102F8000F5CF9F2D9F70F92EAA2029F0892F0E943E
:102F9000EA088E2D1DCF8E2D0E94A7118F2D0E9425
:102FA000C608D7CE8E2DA2EF8A16B1F1A81570F003
:102FB000B0EF8B16D1F0E1EF8E1691F0AA2009F454
:102FC0005EC091107CCE8F2D8F712AC0F3EF8F16CB
:102FD00051F124EF8212F2CF8091650282FD2FC061
:102FE0008F2D8F71AA20D9F21BC0AA2081F034E066
:102FF000391508F4AECE2F2D2F7181E090E001C07D
:10300000880F2A95EAF790911A028927AFCF85E0B9
:10301000891508F49ECEEFCF8F2D8F71A110BFCFF1
:103020000E94EA0896CE80E0AA2009F49FCF9F2D47
:103030009F7181E001C0880F9A95EAF797CFAA2087
:1030400099F09F2D9F71F92E892F0E94EA08809197
:10305000650282FF07C0A8E0FA9EC00111248360C8
:103060008093CC018F2DDCCF81E00E94D308B1E0AA
:10307000B91508F06ECE82E00E94D3086ACE99207E
:1030800059F0893309F0EDCEEFEFF7EE23E0E15090
:10309000F0402040E1F7E3CE8F2D8F7180CFB6E175
:1030A000EB16BCE7FB0621F58091F7018A7A91E0E7
:1030B00009F490E090939C01811194CD89E20E94E3
:1030C00021040E94500E96CBE6E1EE16ECE7FE06D8
:1030D00009F48ACDF7E7EF16FCE7FF0609F492CD75
:1030E00082E028E7E2162CE7F20609F48CCD1FC037
:1030F00037E7E3163CE7F30609F480CD88E7E816E6
:103100008CE7F80609F487CDA3E0EA16ACE7FA06E7
:1031100009F4A2CD08F081CDE114ECE7FE0609F434
:103120008ECDF1E0EF16FCE7FF0609F49BCDD80148
:1031300015968C911597ED90FC90882309F4A0CDFD
:10314000C7010E94B00BD82E682FC7010E946C08DF
:10315000B7018D2D0E94A20B0E94E2067C01882EF1
:10316000F801A580968092943FE093228091CC0153
:10317000877009F1DA2CAA20F9F08F2D807F803436
:1031800069F080E28E0D8830B0F08F2D807E803225
:1031900029F4F1E0FE1578F4992069F08091650238
:1031A00082FF09C082E00E94D3088091CC01877021
:1031B000DD24D3948111D12CCF2CC2942FE0C222D4
:1031C0002BE02C1508F4C5CDEC2DF0E0E753FB4DBA
:1031D0000C94AC22F701E851FC47E730F10508F008
:1031E00073CFEB52FB4D0C94AC22F701E851FC4736
:1031F000E730F105B0F31092BE02C70190578397F4
:1032000008F04DCF84E090E00E9430249093650256
:1032100080936402F701E150F047E232F10508F0D3
:1032200024CCE452FB4D0C94AC22CF93DF938091DD
:10323000CB01807F09F04DC08091CA01882309F439
:1032400048C0E091BB0250918202C091C601D0916A
:10325000C5016091C7017091C80147E05E17C9F1CF
:103260008E2F90E0E49FF0011124ED57FD4F248153
:10327000222391F1489FF001499FF00D1124DF01B5
:10328000AD57BD4F11962C9111972C1325C02C9141
:103290002D1322C015962C91159721111DC0129641
:1032A0002D913C91261B370B283C3105A8F48091C9
:1032B000CB018F7080618093CB01E757FD4F8081F8
:1032C0008F708061808385EC91E00E943E130E94A4
:1032D0002E08DF91CF910895FC013196E770BECFA3
:1032E000A4E1B0E0E6E7F9E10C94BF228C0186E0AE
:1032F000F801DE011F9601900D928A95E1F7F80121
:103300008481E58095ECA92E91E0B92E9091C901B8
:10331000911128C0882319F1EE20F1F0C8010E9414
:10332000EC0BF82E8823C1F087E0F801D50101905D
:103330000D928A95E1F78091C901813031F4809135
:10334000C5019091C6010E94DF0B0E9415198F2DB7
:103350006496ECE00C94DB22C8010E943E13FF242B
:10336000F394F5CFD080C18082809380F090CA0121
:103370002091C7013091C801A401421B530BFF20CB
:1033800009F4D9C0483C510508F092C08823F9F2ED
:103390009091C6018091CB01282F207F09F056C063
:1033A000C91214C09091C501D91210C0E11048C0D3
:1033B0008F7080618093CB0185EC91E00E943E1379
:1033C0008091CB01F8018683F12CC1CFE11038C088
:1033D0006C2D8D2D0E945F026C2D8D2D0E945F0241
:1033E000E82E8111F1CFDF86C88A8F8598890E94E7
:1033F000DF0B292F22952F70243058F49F70223034
:1034000088F0992399F0F8019681907F79F4FE2C49
:103410009ECF2A5F2F70223068F0C8010E943E13B1
:10342000EF2CF5CF992311F0882389F3805E883043
:1034300070F3F3CF803F58F3815F833070F7E7CFAD
:103440008091CB0181608093CB01BECFC91207C0B0
:103450009091C501D91203C0EE2009F48DC0C801B6
:103460000E94EC0B882309F477CFEE2009F474CF87
:103470008091CB01803288F02091C5013091C60146
:10348000398728879B868A869091C9019C871D86EB
:103490008E87CE0108960E943E1387E0F801A5ECC6
:1034A000B1E001900D928A95E1F70E94151957CF6E
:1034B0009091CB01292F207F51F485EC91E00E945F
:1034C0003E1387E0F50111928A95E9F77DCF8823B5
:1034D00009F43DCF8091C6018C1110C08091C501C7
:1034E000D8120CC0E1100AC09683C8010E943E1396
:1034F00087E0F50111928A95E9F729CFC8010E946A
:10350000EC0B882309F428CFEE2009F425CF809115
:10351000CB01803210F22091C5013091C6013A836F
:1035200029839C828B829091C9019D831E828F8307
:10353000CE010196B0CF483C5105D0F6882309F45E
:103540000ECFFE2CEE2009F407CF8091C6018C111E
:1035500020C08091C501D8121CC08091CB0180FD94
:103560000FC0982F907F61F08683903F31F0982FA5
:10357000907F905F8F70892B8683C8010E943E13D5
:1035800087E0F801A5ECB1E001900D928A95E1F792
:10359000DECEC8010E94EC0B81117FCF8091CB0160
:1035A00081608093CB01C8010E943E13D0CEABE175
:1035B000B0E0EDEDFAE10C94C7224E8B5F8B688F83
:1035C000798F8A8F9B8F192F91111092CE011D8AAE
:1035D00086E0FE017696DE011F9601900D928A9597
:1035E000E1F70A8D002341F021E04F855889698970
:1035F0007A89C8010E940F0C0B8B1C8B87E0FE019F
:103600003F96DE01189601900D928A95E1F7CE0162
:1036100008960E94701981110CC087E0FE0138964F
:10362000DE01119601900D928A95E1F78C8581114A
:103630000BC017E08091BB0290918202891331C0C8
:103640006B96E4E00C94E3222091820230E0C90101
:103650000196877099274091BB024817190699F087
:1036600097E0929FD001939FB00D1124AD57BD4FAD
:10367000FE01319601900D929A95E1F780938202B6
:103680000E942E08D6CF0E94A20E109282021092A3
:10369000BB0287E0E5ECF1E0DF011D928A95E9F7D6
:1036A000C8CF819FC00111248D579D4F0E94701972
:1036B000882331F28091BB0290E0019687709927B0
:1036C0008093BB02B7CFA6E0B0E0E9E6FBE10C9443
:1036D000C7220E94EA038C018091F8019091F901C0
:1036E0008017910781F019821A820E94EA03682FDD
:1036F00049815A81792F80E090E00E94D71A109377
:10370000F9010093F8012696E4E00C94E3221F925D
:103710000F920FB60F9211242F933F934F935F9305
:103720006F937F938F939F93AF93BF93CF93DF93C9
:10373000EF93FF93D091E900DF708091EC00C82FE8
:10374000C17080FDC0E81092E9008091F000877F91
:103750008093F00078940E94D30E1092E90080913B
:10376000F00088608093F000CD2BCF70C093E9000B
:10377000FF91EF91DF91CF91BF91AF919F918F9189
:103780007F916F915F914F913F912F910F900FBE5D
:103790000F901F9018951F920F920FB60F92112441
:1037A0002F933F934F935F936F937F938F939F9349
:1037B000AF93BF93EF93FF938091E10082FF09C025
:1037C0008091E20082FF05C08091E1008B7F8093B1
:1037D000E1008091DA0080FF24C08091D80080FF52
:1037E00020C08091DA008E7F8093DA008091D9002A
:1037F00080FF9DC088E189BD8AE189BD09B400FED2
:10380000FDCF81E08093780280916B02811109C025
:103810000E947E020E941F038091E20084608093D8
:10382000E2008091E10080FF17C08091E20080FFFC
:1038300013C08091E2008E7F8093E2008091E200CD
:1038400080618093E2008091D80080628093D800EC
:1038500019BC85E0809378028091E10084FF2BC041
:103860008091E20084FF27C088E189BD8AE189BD9B
:1038700089B5982F917080FFFBCF8091D8008F7D04
:103880008093D8008091E1008F7E8093E100809149
:10389000E2008F7E8093E2008091E200816080935D
:1038A000E20080917902882309F447C084E0809384
:1038B0007802809178028091E10083FF27C0809197
:1038C000E20083FF23C08091E100877F8093E100C5
:1038D00082E080937802109279028091E1008E7FDD
:1038E0008093E1008091E2008E7F8093E2008091DE
:1038F000E20080618093E20042E060E080E00E94AC
:10390000ED028091F00088608093F000FF91EF91CC
:10391000BF91AF919F918F917F916F915F914F91E7
:103920003F912F910F900FBE0F901F90189519BCCB
:103930001092780210926B0274CF8091E30087FDA1
:1039400093E090937802B5CF78941F921FB61F92A0
:1039500011248F939F93AF93BF93809167029091AF
:103960006802A0916902B0916A020196A11DB11D81
:103970008093670290936802A0936902B0936A02F1
:10398000BF91AF919F918F911F901FBE1F9018956F
:103990001F921FB61F9211248F939F93AF93BF93D3
:1039A00080916602811113C0809167029091680234
:1039B000A0916902B0916A024196A11DB11D809348
:1039C000670290936802A0936902B0936A02BF9164
:1039D000AF919F918F911F901FBE1F9018951F92BE
:1039E0000F920FB60F9211242F933F934F935F9333
:1039F0006F937F938F939F93AF93BF93EF93FF93B7
:103A0000809110018230A1F08F5F80931001FF91AF
:103A1000EF91BF91AF919F918F917F916F915F9146
:103A20004F913F912F910F900FBE0F901F901895BF
:103A300081E08093100180914F0290915002019695
:103A400060ED72E00E9484229093500280934F02B6
:103A500065E070E00E94842267FD6FE780914E026E
:103A6000823041F4603451F480916F008E7F8093F6
:103A70006F0004C0813011F46F37B1F3E62FF0E02E
:103A8000EC59FD4F2491A0918600B091870030E061
:103A90000E94A7242FEF30E040E050E00E948524F0
:103AA000C9016AE070E00E94842280914D028695EF
:103AB00086958695282F269FC001279F900D11245B
:103AC0000E94230590938D0080938C00A0CFCDB7EA
:103AD000DEB7A8970FB6F894DEBF0FBECDBF85B78F
:103AE000806885BF85B7806885BF84B7877F84BFBE
:103AF0000FB6F894A895809160008861809360006B
:103B0000109260000FBE80E890E00FB6F8948093AA
:103B10006100909361000FBE88ED95E09093730172
:103B2000809372010E947E020E941F038091E20036
:103B300084608093E2007894809178028823A1F0D9
:103B40001091E9001F709091EC00892F817090FD19
:103B500080E8182B1092E9008091E80083FD0E9414
:103B6000D30E1F701093E90082E084BD93E095BDF1
:103B70009AEF97BD80936E000E945A0B811102C08C
:103B80000E94F40A0BE411E0E1E5EE2EE1E0FE2EE6
:103B9000D8018D918D018F3F11F00E94DA05E0165A
:103BA000F106B1F701E511E0F80181918F018F3F36
:103BB00011F00E94DA05F1E002361F07A9F788E14B
:103BC000E5E3F2E0DF01282F1D922A95E9F7E1E015
:103BD000F2E0DF011D928A95E9F786E690E00E9407
:103BE000F022BC01909300028093FF0130E020E0BE
:103BF000FB01E20FF31F91E140814170419391502D
:103C0000D9F72F5E3F4F2636310591F790E080E0DF
:103C10000E943024863E9E4F21F40E945A0B81114F
:103C200068C066EE7EEF90E080E00E94642460E071
:103C300082E090E00E94462481E08093190261E0D6
:103C400083E090E00E94462460E074E184E090E02C
:103C50000E94642460E086E090E00E94462460E0D8
:103C600087E090E00E94462440E050E0BA0188E0FE
:103C700090E00E94582460E084E290E00E94462494
:103C800060E087E190E00E94462460E08CE090E0F4
:103C90000E94462460E08DE090E00E944624198254
:103CA0001A821B821C821D821E821F82188648E097
:103CB00050E068E170E0CE0101960E94362440E0B9
:103CC00050E0BA0180E290E00E94582480E00E9417
:103CD000710A0E94F40A40E050E0BA018FE090E0DF
:103CE0000E94582440E050E0BA0183E190E00E9435
:103CF000582482E090E00E94282480931B0284E0F4
:103D000090E00E94302490936502809364020E94A8
:103D10006D0CEFEFF6E721E0E150F0402040E1F7D5
:103D200000C000000E946D0C8091350280FF08C029
:103D30006FEF7FEF90E080E00E9464240E944D0AC4
:103D400083E090E00E9428240E94F6083A9A429864
:103D5000399A4198279A2F988AE08093800089E1C8
:103D6000809381008FEF9FEF909387008093860070
:103D70000E94340C80914D0281FF0BC010925002C2
:103D800010924F0210924E0280916F0081608093DA
:103D90006F000E94340C86E091E090936102809362
:103DA00060028091780208E11AE1853009F4C2C00E
:103DB0000E946D0C7CE1272E72E0372EA5E3B2E065
:103DC000B8A7AFA3F10101911191219131914D91CA
:103DD0005D916D917D9184E392E08E179F0709F4C8
:103DE000B7C0041715072607370769F310E0AFA11E
:103DF000B8A5CD90DD90ED90FD90B8A7AFA3F101EF
:103E000041905190619071901F014C145D046E04BB
:103E10007F04E1F14C245D246E247F2400E0812C9A
:103E2000912C54018394D301C20188219921AA21A4
:103E3000BB21892B8A2B8B2BE1F009A31AA30E94AB
:103E4000EA039CA38BA3F1E0FDA391E0B701A601D7
:103E5000482159216A217B21452B462B472B09F408
:103E600090E09EA349A15AA16BA17CA18DA10E94C3
:103E7000D71A0F5F880C991CAA1CBB1C013199F63C
:103E8000F1013497C082D182E282F3821F5F163043
:103E900009F0ADCF8FB7F894409167025091680256
:103EA0006091690270916A028FBF5AC08091780256
:103EB000843051F180E00E94C10580E00E94DD095C
:103EC0001092660288E190E0A0E40FB6F894A895FD
:103ED000809360000FBEA093600083B7817F8460F1
:103EE00083BF83B7816083BF7894889583B78E7FC3
:103EF00083BF0FB6F894A895809160008861809385
:103F00006000109260000FBE80917702882391F0CC
:103F10000E946D0CE5E3F2E081919191A191B19144
:103F2000892B8A2B8B2B09F0B1C28DE492E08E177E
:103F30009F0791F780917802853009F4B7CF0E94EE
:103F4000A20E0E94340C0E949F040E94DD0930CF13
:103F5000041715072607370709F048CF0E94631B8F
:103F600086E0E8E5F2E0DE01119601900D928A9577
:103F7000E1F7D0905902F0905A0210915B02E09064
:103F80005C0200915D0210925A0210925B02109244
:103F90005C0210925D02812F8F2909F445C0809147
:103FA0005602909157020E94DB039C0190915102AE
:103FB000992309F494C225313105B0F19F3F19F0DE
:103FC0009F5F90935102FF2059F00E94F5049FEFEC
:103FD0001F140CF491E0899F802D112480935A02C4
:103FE000112359F00E94F50491E011160CF09FEF97
:103FF000899F802D112480935B0280915A0288232F
:1040000099F0C0905B02CC2079F00E9415058823BE
:1040100009F4BCC080935A028C2D0E941505882398
:1040200009F4B6C080935B02802F8E2909F445C045
:1040300080915402909155020E94DB039C01909163
:104040005202992309F446C221353105B0F19F3F50
:1040500019F09F5F90935202EE2059F00E94D30412
:104060009FEF1E140CF491E0899F802D1124809302
:104070005C02002359F00E94D30491E010160CF06A
:104080009FEF899F802D112480935D0280915C02B7
:10409000882399F0E0905D02EE2079F00E941505EA
:1040A000882309F477C080935C028E2D0E94150549
:1040B000882309F471C080935D02809159028D11AB
:1040C00017C080915A02882311F08F1111C02091DE
:1040D0005B02222311F012130BC090915D02992311
:1040E00011F0091305C030915C02332309F4E4C1D7
:1040F0000E94AC0486E0FE013196A8E5B2E0019092
:104100000D928A95E1F70E949F04909134028917DD
:1041100079F0809334029FB7F894409167025091F0
:1041200068026091690270916A029FBF0E94DD0976
:1041300080917802843009F034CE83E08093E900E6
:104140008091E80082FF2DCE8091E80090E085FF0D
:104150000BC00E949D0240E2E42EF12C8E010F5F05
:104160001F4F882321F191E08091E8008B778093A5
:10417000E800992309F415CE8981EFEFE80FE331C8
:1041800078F5F0E0E250FB4D0C94AC2281E042CF98
:1041900081E048CF81E087CF81E08DCF8091F10031
:1041A000D8018D938D01B1E0EB1AF108E1F2809115
:1041B000E80085FDF3CF8091E8008B778093E800DD
:1041C0000E949D02882399F3CECF1A828CE08B83C4
:1041D00024C08A81823009F474C128F4813061F0EE
:1041E0008FEF89831AC0833009F18430C9F71B82AD
:1041F0001C821D821E8211C02FB7F8946091670245
:10420000709168028091690290916A022FBF0E94AA
:10421000B2226B837C838D839E8340E250E0BE019B
:104220006F5F7F4F82E00E94E909BBCD2B81822F17
:1042300090E0FE013196275F8630910570F7DC0132
:10424000AA0FBB1FAA0FBB1FAB5CBD4F3C911196C1
:104250004C91119712965C91538344833583019658
:1042600033962813E9CFD9CF8A81823051F0853037
:1042700009F0B6CF80914D0280FF0EC00E94350B31
:10428000CCCF6B817C818D819E810E94B22288E29D
:1042900090E00E944624C1CF0E94420BBECF4C81C9
:1042A0006B818A810E94730B9827892798279E83A8
:1042B0008D83B3CF2D813E813227232732274C8136
:1042C0006B818A810E949A0AA8CF0E94C00AA5CF5A
:1042D0009A81913009F084CF8830F1F08930B9F1BA
:1042E0008B81813049F0823009F097CF8C81811128
:1042F00010C00E940A0B91CF8C81EAE08E9FC00112
:1043000011246FEF70E00E948422862F0E94C10565
:1043100084CF0E94200B81CF8B81813049F0823085
:1043200009F07BCF80914D02869581708C8375CF8B
:1043300080914D02869586958695FFEF8F9FC001EF
:1043400011246AE070E00E9484226C8366CF809121
:104350004D020E94040B61CF80E18A835ECF84E02E
:104360008A8387EA34CF0A811B811027012710270F
:10437000CE0101966C01EC80DC01AE0DB11D7D011A
:10438000C801875A9C4FCE14DF0409F446CF073A80
:10439000B4E01B0750F40E942824F60184830F5FC9
:1043A0001F4FBFEFCB1ADB0AEBCFD60114961C923E
:1043B000F6CF0A811B81102701271027FE013196B5
:1043C0006F01EC80E00EF12EF11CC801875A9C4F62
:1043D000E016F10609F421CF073AF4E01F0728F4AC
:1043E000D60114966C910E944624BFEFCB1ADB0ACB
:1043F0000F5F1F4FEACF0E948A0A0FCF84E0ADCF34
:104400000A811B81102701271027FE0131966F01B9
:10441000EC80CF018E0D911D7C01C8018996EC14B2
:10442000FD0409F4FACE0033A3E01A0750F40E9409
:104430002824F60184830F5F1F4FBFEFCB1ADB0ADE
:10444000ECCFD60114961C92F6CF0A811B8110275F
:1044500001271027FE0131966F01EC80E00EF12E4E
:10446000F11CC80189960E151F0509F4D6CE00333C
:10447000F3E01F0728F4D60114966C910E9446249D
:10448000BFEFCB1ADB0A0F5F1F4FEBCF09BD19BD82
:1044900009B400FEFDCF8091D8008F7D8093D800B5
:1044A0008091E00082608093E0008091E00081FDD7
:1044B000FCCF0E94A20E3ECD822B892B09F41ACE8E
:1044C00017CE88E290E00E9428241B821C821D8265
:1044D0008E83A3CE2B30310508F0BBCDEECD2B3033
:1044E000310508F06DCDA0CDDB018F939F930E9425
:1044F0007A24BF91AF91A29F800D911DA39F900D33
:10450000B29F900D11240895AA1BBB1B51E107C057
:10451000AA1FBB1FA617B70710F0A61BB70B881F53
:10452000991F5A95A9F780959095BC01CD010895E2
:1045300097FB072E16F4009407D077FD09D00E9450
:10454000842207FC05D03EF4909581959F4F0895F5
:10455000709561957F4F0895EE0FFF1F0590F491C0
:10456000E02D0994692796276927782787277827D8
:1045700008952F923F924F925F926F927F928F9207
:104580009F92AF92BF92CF92DF92EF92FF920F93E2
:104590001F93CF93DF93CDB7DEB7CA1BDB0B0FB6EC
:1045A000F894DEBF0FBECDBF09942A8839884888A9
:1045B0005F846E847D848C849B84AA84B984C8843F
:1045C000DF80EE80FD800C811B81AA81B981CE0F36
:1045D000D11D0FB6F894DEBF0FBECDBFED0108951B
:1045E0000F931F93CF93DF938230910510F482E0F5
:1045F00090E0E091C102F091C20230E020E0B0E032
:10460000A0E0309799F42115310509F447C0281B23
:10461000390B24303105C0F58A819B816115710504
:1046200071F1FB0193838283FE0111C040815181AE
:104630000281138148175907F8F04817590799F470
:10464000109761F012960C93129713961C93329662
:10465000CF01DF91CF911F910F9108950093C10277
:104660001093C202F4CF2115310519F042175307F8
:1046700018F49A01BD01EF01DF01F801C2CF909358
:10468000C2028093C102D0CFFE01E20FF31F8193DB
:1046900091932250310939832883DACF2091BF02C8
:1046A0003091C002232B41F420910201309103018B
:1046B0003093C0022093BF0220910001309101018C
:1046C0002115310541F42DB73EB7409104015091B9
:1046D0000501241B350B4091BF025091C0024217C7
:1046E000530708F0B5CF241B350B2817390708F4FA
:1046F000AFCFBC016E5F7F4F2617370708F4A8CFF6
:10470000640F751F7093C0026093BF02FA0181931A
:1047100091939ECFCF93DF930097E9F0FC013297FE
:1047200013821282C091C102D091C202DE0130E038
:1047300020E02097A1F420813181820F931F2091E6
:10474000BF023091C0022817390709F067C0F09303
:10475000C002E093BF02DF91CF910895DA01AE1756
:10476000BF0708F040C012964D915C9113979D01D0
:104770004115510599F7D9011396FC93EE931297C1
:104780004D915D91A40FB51FEA17FB0779F4808165
:1047900091810296840F951FD90111969C938E9357
:1047A0008281938113969C938E931297B0E0A0E040
:1047B0008A819B810097B9F5FE0181919191E80F63
:1047C000F91F8091BF029091C0028E179F0719F6C2
:1047D000109761F51092C2021092C102D093C002EC
:1047E000C093BF02B8CFB383A28340815181840FAD
:1047F000951FA817B90771F44E5F5F4F8D919C917B
:104800001197480F591F5183408312968D919C91A7
:10481000938382832115310509F0ADCFF093C20255
:10482000E093C10298CFDE01EC01C2CF13961C9237
:104830001E921297D3CFFB01DC0104C08D91019031
:10484000801921F441505040C8F7881B990B0895F6
:10485000F999FECF92BD81BDF89A992780B5089548
:10486000A8E1B0E042E050E00C946C24DC01A40F1D
:10487000B51F4150504048F0CB01840F951F2E9139
:104880000E94472441505040D0F70895262FF999AF
:10489000FECF92BD81BDF89A019700B4021639F09F
:1048A0001FBA20BD0FB6F894FA9AF99A0FBE089570
:1048B0000396272F0E9447240E944624252F0E94FA
:1048C0004724242F0C9447240196272F0E94472425
:1048D0000C944624DC01CB01FC01F999FECF06C003
:1048E000F2BDE1BDF89A319600B40D9241505040AE
:1048F000B8F708950E94A724A59F900DB49F900D2E
:10490000A49F800D911D11240895A1E21A2EAA1BC7
:10491000BB1BFD010DC0AA1FBB1FEE1FFF1FA2176F
:10492000B307E407F50720F0A21BB30BE40BF50B6C
:10493000661F771F881F991F1A9469F760957095F5
:10494000809590959B01AC01BD01CF010895A29F78
:10495000B001B39FC001A39F700D811D1124911D53
:10496000B29F700D811D1124911D0895F894FFCF01
:10497000B40FDC0F7F11DC0F7F110F1030107F118F
:104980002E113B11B214BA14EC14BC14D814F61442
:104990000D15451645167F167F1635174F17A916A4
:1049A000A9165417C117D217D21722152615171595
:1049B0001E152A152E1532156F15E415771541159C
:1049C00045157B1549157F158B155515DD155915A1
:1049D0008F155D159315BB1561159715C2156715D4
:1049E0009D15A5154D158315511587156B15A11529
:1049F000B115CB15DB153B157315EB15E520E9203B
:104A000034214F215A216521682168216821F02035
:104A1000F020AC21AF21B321D921FB21FE210022BE
:024A200025224D
:104A22000000C7022000D803390A320A2B0A240ADE
:104A32000101818283E200E900EA00B500B600B715
:104A420000CD008301CC008A01920194012102234E
:104A52000224022502260227022A02B300B4006FB2
:104A62000070009F01CB019F02A00263F336006732
:104A720064F5F6F7010235343332F2F1F0F43165C0
:104A820066604422B670014E019800C203DB03FB4C
:024A920003001F
:00000001FF
